S01E0000526563696576655F636861725F696E746572727570742E73726563FA
S11300000C9434000C9446000C9446000C94460066
S11300100C9446000C9446000C9446000C94460044
S11300200C9446000C9446000C9446000C94460034
S11300300C9446000C9446000C9446000C94460024
S11300400C9446000C9446000C947E000C944600DC
S11300500C9446000C9446000C9446000C94460004
S11300600C9446000C94460011241FBECFEFD8E038
S1130070DEBFCDBF21E0A0E0B1E001C01D92A03001
S1130080B207E1F70E9475000C94AA000C940000DA
S113009083E390E09093C5008093C40080E1809353
S11300A0C10086E08093C2000895E1ECF0E0808115
S11300B0806880837894089581E087B988B92FE9AE
S11300C036E891E0215030409040E1F700C0000054
S11300D098B1892788B92FE936E881E0215030406A
S11300E08040E1F700C00000089581E084B90E94D7
S11300F048000E9455000E945C00FDCF1F920F92A1
S11301000FB60F9211242F933F934F935F936F93E6
S11301107F938F939F93AF93BF93EF93FF938091BC
S1130120C600883521F495B181E0892785B90E94FC
S11301305C00FF91EF91BF91AF919F918F917F915F
S11301406F915F914F913F912F910F900FBE0F9040
S10B01501F901895F894FFCFED
S9030000FC
