:100000000C9434000C9446000C9446000C9446006A
:100010000C9446000C9446000C9446000C94460048
:100020000C9446000C9446000C9446000C94460038
:100030000C9446000C9446000C9446000C94460028
:100040000C9446000C9446000C9446000C94460018
:100050000C9446000C9446000C9446000C94460008
:100060000C9446000C94460011241FBECFEFD8E03C
:10007000DEBFCDBF21E0A0E0B1E001C01D92A13004
:10008000B207E1F70E9473000C947B000C9400000F
:1000900083E390E09093C5008093C40088E180934F
:1000A000C10086E08093C2000895A0ECB0E0E6ECC9
:1000B000F0E021E099E513C08081809300018F7DFD
:1000C000883561F428B93FE946E881E03150404085
:1000D0008040E1F700C00000908301C018B88C9107
:1000E000882354F3089581E087B918B80E94480026
:0A00F0000E945500FDCFF894FFCFE9
:00000001FF
