:060000000A128A11122809
:10000800FE00030EF0000408F1000A08F200831253
:1000180003137F08F3000A128A1126290A128A118B
:100028001528F701F80183010A128A111B288B177A
:100038000B170B1683160313061487018312031379
:10004800870109298312031307140330F6000830C7
:10005800F5007730F400F40B2F28F50B2F28F60B5A
:100068002F288312031387140330F6000830F50095
:100078007730F400F40B3E28F50B3E28F60B3E28AB
:100088008312031307150330F6000830F5007730A4
:10009800F400F40B4D28F50B4D28F60B4D28831270
:1000A800031387150330F6000830F5007730F400A5
:1000B800F40B5C28F50B5C28F60B5C288312031301
:1000C80007160330F6000830F5007730F400F40B1B
:1000D8006B28F50B6B28F60B6B2809298312031381
:1000E80007100330F6000830F5007730F400F40B01
:1000F8007B28F50B7B28F60B7B28831203138714C8
:100108000330F6000830F5007730F400F40B8A2845
:10011800F50B8A28F60B8A2883120313071103307C
:10012800F6000830F5007730F400F40B9928F50B49
:100138009928F60B99288312031387150330F600C4
:100148000830F5007730F400F40BA828F50BA82840
:10015800F60BA8288312031307120330F6000830A1
:10016800F5007730F400F40BB728F50BB728F60B39
:10017800B72809298312031307140330F60008303F
:10018800F5007730F400F40BC728F50BC728F60BF9
:10019800C7288312031387100330F6000830F500D0
:1001A8007730F400F40BD628F50BD628F60BD628B2
:1001B8008312031307150330F6000830F500773073
:1001C800F400F40BE528F50BE528F60BE528831277
:1001D800031387110330F6000830F5007730F40078
:1001E800F40BF428F50BF428F60BF4288312031308
:1001F80007160330F6000830F5007730F400F40BEA
:100208000329F50B0329F60B03297703780403194F
:1002180026280230770678040319722803307706F7
:1002280078040319BE28043077067804031D0929C9
:100238008312031307108710071187110712F7019C
:10024800F80109298B1C2F290130F7070318F80A30
:100258000030F8078B107308FF0072088A007108D5
:0C0268008400700E8300FE0E7E0E090064
:00000001FF
