S00F00005350495F4C43442E73726563F7
S11300000C9434000C9449000C9449000C9449005D
S11300100C9449000C9449000C9449000C94490038
S11300200C9449000C9449000C9449000C94490028
S11300300C9449000C9449000C9449000C94490018
S11300400C9449000C9449000C9449000C94490008
S11300500C9449000C9449000C9449000C944900F8
S11300600C9449000C94490011241FBECFEFD8E032
S1130070DEBFCDBF11E0A0E0B1E0EAE1F2E002C0F2
S113008005900D92A630B107D9F70E94CB000C94CD
S11300900B010C94000084B1886284B981E58CBDA5
S11300A008958EBD0DB407FEFDCF0895CF93DF9361
S11300B0EC018881882379F021960E9451002FEF6A
S11300C080E792E0215080409040E1F700C00000BA
S11300D089918111F2CFDF91CF910895249A81E41F
S11300E08CBD08952E982F988BB92F9A8FE19EE49A
S11300F00197F1F700C000002F980895CF93DF9384
S1130100EC010E947200CE0182959295907F98270F
S1130110807F982799270E947200DF91CF910895DC
S113012082E090E00E947E0083E390E00E947E00E3
S113013082E390E00E947E008CE090E00E947E00CA
S113014086E090E00E947E0081E090E00E947E00C4
S113015008952F9A8FE19EE40197F1F700C0000003
S11301602F980895CF93DF93EC012E9A2F988881CE
S1130170882371F08BB90E94A900899120E1829FA4
S1130180C00111248BB90E94A90088818111F2CF8A
S1130190DF91CF910895CF93DF93CDB7DEB7649706
S11301A00FB6F894DEBF0FBECDBF389886B1813448
S11301B0C1F08FEF8AB984B1806C84B90E946E005B
S11301C00E9490001982CE0101960E94B2002FEF86
S11301D080E792E0215080409040E1F700C00000A9
S11301E0F1CF86E0E0E0F1E0DE01119601900D929E
S11301F08A95E1F70E944B00CE0101960E945600B9
S113020080E090E064960FB6F894DEBF0FBECDBFD9
S10D0210DF91CF910895F894FFCF19
S109021A68656C6C6F00C6
S9030000FC
