S01000005350495F544553542E7372656389
S11300000C9434000C9449000C9449000C9449005D
S11300100C9449000C9449000C9449000C94490038
S11300200C9449000C9449000C9449000C94490028
S11300300C9449000C9449000C9449000C94490018
S11300400C9449000C9449000C9449000C94490008
S11300500C9449000C9449000C9449000C944900F8
S11300600C9449000C94490011241FBECFEFD8E032
S1130070DEBFCDBF11E0A0E0B1E0ECE5F1E002C0ED
S113008005900D92A630B107D9F70E946F000C9429
S1130090AC000C94000084B1886284B981E58CBD05
S11300A008958EBD0DB407FEFDCF0895CF93DF9361
S11300B0EC018881882331F021960E9451008991B6
S11300C08111FBCFDF91CF91089580E184B981E460
S11300D08CBD08950DB407FEFDCF8EB50895CF9362
S11300E0DF9300D000D000D0CDB7DEB7509889B1EF
S11300F08130C9F486E0E0E0F1E0DE011196019080
S11301000D928A95E1F70E944B00CE0101960E9460
S113011056002FE986E891E0215080409040E1F7B5
S113012000C00000F2CF89B181110BC00E946500AC
S11301300E946A0087EA91E60197F1F700C0000087
S1130140F7CF80E090E026960FB6F894DEBF0FBE9E
S10F0150CDBFDF91CF910895F894FFCF4C
S109015C6869696969008D
S9030000FC
