:100000000C9434000C9446000C9446000C9446006A
:100010000C9446000C9446000C9446000C94460048
:100020000C9446000C9446000C9446000C94460038
:100030000C9446000C9446000C9446000C94460028
:100040000C9453000C9446000C9446000C9446000B
:100050000C9446000C9446000C9446000C94460008
:100060000C9446000C94460011241FBECFEFD8E03C
:10007000DEBFCDBF21E0A0E0B1E001C01D92A23003
:10008000B207E1F70E9448000C9477000C9400003E
:100090008FEF84B915B885E085BD16BC81E08093EB
:1000A0006E007894FFCF1F920F920FB60F9211241B
:1000B0008F939F9380910001909101014F9739F4A4
:1000C00085B1809585B9109201011092000180914F
:1000D000000190910101019690930101809300012C
:1000E0009F918F910F900FBE0F901F901895F894CD
:0200F000FFCF40
:00000001FF
