:020000040800F2
:100000000000032091050008AD1C0008AF1C00088B
:10001000B11C0008B31C0008B51C0008000000005B
:10002000000000000000000000000000E15E000889
:10003000B71C000800000000715F0008D55F0008D1
:10004000E1050008E1050008E1050008E1050008F8
:10005000E1050008E1050008E1050008E1050008E8
:10006000E1050008E1050008E1050008E1050008D8
:10007000E1050008E1050008E1050008E1050008C8
:10008000E1050008E1050008E1050008E1050008B8
:10009000E1050008E1050008E1050008E1050008A8
:1000A000E1050008E1050008E1050008E105000898
:1000B000E1050008E1050008E1050008E105000888
:1000C000E1050008E1050008E1050008E105000878
:1000D000E1050008E1050008E1050008E105000868
:1000E000E1050008E1050008E1050008E105000858
:1000F000E1050008E1050008E1050008E105000848
:10010000E1050008E1050008E1050008E105000837
:10011000E1050008E1050008B91C0008E105000838
:10012000E1050008E1050008E1050008E105000817
:10013000E1050008E1050008E1050008E105000807
:10014000E1050008E1050008E1050008E1050008F7
:10015000E1050008E1050008E1050008E1050008E7
:10016000E1050008E1050008E1050008E1050008D7
:10017000E1050008E1050008E105000800000000B5
:10018000E1050008E1050008E1050008E1050008B7
:10019000E1050008E1050008E1050008E1050008A7
:0C01A000C51C0008E1050008D11C000887
:1001B00010B5054C237833B9044B13B10448AFF3A1
:1001C00000800123237010BD6001002000000000AA
:1001D0009C87010808B5034B1BB103490348AFF3E3
:1001E000008008BD00000000640100209C87010819
:1001F00001F0FF01102A2BDB10F0070F08D010F8D8
:10020000013B013A8B422DD010F0070F42B3F6D1DB
:10021000F0B441EA012141EA014122F007047FF0F4
:1002200000070023F0E80256083C85EA010586EA4B
:10023000010685FA47F5A3FA87F586FA47F6A5FA87
:1002400087F68EB9EED1F0BC01F0FF0102F0070293
:1002500032B110F8013B013A83EA010313B1F8D13E
:100260000020704701387047002D06BF354603381F
:10027000073815F0010F07D1013015F4807F02BF58
:10028000013015F4C03F0130F0BC0138704700BFA9
:1002900053B94AB9002908BF00281CBF4FF0FF31ED
:1002A0004FF0FF3000F072B9ADF1080C6DE904CEEB
:1002B00000F006F8DDF804E0DDE9022304B0704741
:1002C0002DE9F047089E04468846002B4BD18A4210
:1002D000154667D9B2FA82F24AB1C2F1200701FA93
:1002E00002F320FA07F7954047EA030894404FEAE3
:1002F000154E230CB8FBFEF71FFA85FC0EFB178882
:1003000043EA084307FB0CF1994209D9EB1807F1BE
:10031000FF3080F01B81994240F21881023F2B444C
:100320005B1AA4B2B3FBFEF00EFB103344EA0344A5
:1003300000FB0CFCA44509D92C1900F1FF3380F017
:100340000781A44540F2048102382C4440EA07406A
:10035000A4EB0C0400271EB1D4400023C6E90043DF
:100360003946BDE8F0878B4209D9002E00F0EB80BA
:100370000027C6E9000138463946BDE8F087B3FAE0
:1003800083F7002F47D18B4202D3824200F2FA80DA
:10039000841A61EB030301209846002EE0D0C6E9E1
:1003A0000048DDE702B9FFDEB2FA82F2002A40F02F
:1003B0008F80491B4FEA154E1FFA85F80127B1FBC4
:1003C000FEFC230C0EFB1C1143EA014308FB0CF15D
:1003D000994207D9EB180CF1FF3002D2994200F292
:1003E000CD808446591AA3B2B1FBFEF00EFB101467
:1003F00043EA044408FB00F8A04507D92C1900F192
:10040000FF3302D2A04500F2B6801846A4EB0804E0
:1004100040EA0C409FE7C7F1200CBB4022FA0CFEDB
:100420004EEA030E01FA07F420FA0CF521FA0CF358
:100430004FEA1E482543B3FBF8F92C0C08FB19338F
:100440001FFA8EFA44EA034309FB0AF49C4202FABB
:1004500007F200FA07F10BD91EEB030309F1FF3095
:1004600080F087809C4240F28480A9F102097344A5
:100470001B1BADB2B3FBF8F008FB103345EA034495
:1004800000FB0AFAA24508D91EEB040400F1FF3371
:100490006BD2A24569D90238744440EA0940A0FBF6
:1004A0000289A4EB0A044C45C2464B4654D351D0B2
:1004B000002E69D0B1EB0A0564EB030404FA0CFCCE
:1004C000FD40FC404CEA0505C6E90054002747E71B
:1004D000C2F1200320FA03F7954001FA02F021FA55
:1004E00003F34FEA154E3843010CB3FBFEF71FFA36
:1004F00085F80EFB173341EA034107FB08F38B42F3
:1005000004FA02F407D9691807F1FF3C2FD28B4295
:100510002DD9023F2944CB1A81B2B3FBFEF00EFB6A
:10052000103341EA034100FB08F38B4207D96918F5
:1005300000F1FF3C17D28B4215D902382944C91A61
:1005400040EA07473BE73746304609E70746E7E614
:100550001846FBE64145ABD2B8EB020A69EB0E0246
:1005600001381346A4E76046E9E7184695E7674671
:10057000D1E781467CE702382C4447E7ACF1020C16
:100580002B442FE7384608E73746E9E6704700BFB7
:10059000DFF834D0002103E00C4B5B5843500431AA
:1005A0000B480C4B42189A42F6D30B4A02E0002348
:1005B00042F8043B094B9A42F9D302F033FE17F09C
:1005C00031F900F081FE704700000320680607083B
:1005D0000000002060010020600100202CA4002009
:1005E000FEE700F089BC00F0F1BC704710B50421B3
:1005F000044617F0A1F8204610BD000038B50C4B9A
:100600000C4C18800C4B822019806368984740F688
:10061000110398420AD1094D23682C608220984723
:100620002B688220DB689847002038BD0120FCE75A
:100630007C0100204C0000207E0100208001002071
:100640004FF4A071F020FFF7D9BF0000F7B52C4D93
:100650002B6804461B698220984780B220800028BE
:100660004BD02B680DF106025B6901A982209847E7
:10067000BDF80630A3F5B4739BB20B22B3FBF2F3C3
:1006800033B1204A12889A423CBF02F1FF339BB239
:10069000BDF8042040F6B8318A4295BFC2F57162B8
:1006A000C2F56D620E320832ADF80420BDF80410B8
:1006B0000F22B1FBF2F131B1134A12888A423CBFDA
:1006C00002F1FF3189B2114E114D30682F6882B2AC
:1006D000814288BF8A1AB8B298BF521ABB428CBFF7
:1006E000181AC01A92B280B20244052AC4BF3160FF
:1006F0002B60336863802B68A38003B0F0BD00BF1C
:10070000800100207E0100207C0100208401002067
:100710008801002037B568460D461446FFF796FF5E
:10072000BDF8000030B1BDF802302B60BDF80430D8
:100730002360012003B030BD70477047704701232C
:1007400080F8741080F875307047406803681B6843
:10075000184700207047836B0BB108461847704755
:100760004FF6FF707047406803689B6918477047F1
:1007700008B5036804469B6E9847236820461B6EA5
:10078000984700F04FF9236820469B6D9847292031
:1007900000F0C0FF00F046F9236820469B6D9847A3
:1007A000F8E710B5044608F0E5F823682046D3F8CA
:1007B0009030BDE81040184700F0A0BC00F0A4BC89
:1007C00000F0AABC00F076BC00F0A8BC00F0B0BC01
:1007D00000F07ABC08B531B90A4B0B4A0B4840F21D
:1007E000822116F0D5FFC0E90F1200320849436498
:1007F00018BF01220A700033064A18BF0123137084
:1008000008BD00BF31880108B8890108698801085E
:10081000129F0020139F00202DE9F04799461C4BA2
:100820009DF820508846196891F87630074614469E
:100830000BB1C86C00B9886803685B6A9847154BB0
:100840001E887043B9F1000F16D008EB00010A466C
:10085000ADB10B18013CA4B21F2C12D8012101FA32
:1008600004F40D49214061B139684C6F3846414666
:10087000A446BDE8F047604741464A46E8E72B46B4
:10088000E8E7064B064A074840F26F2116F080FF62
:10089000149F0020109F00208B8080801488010806
:1008A000648901086988010807F0F4BA10B5782155
:1008B000044616F041FF204610BD000030B590F808
:1008C000341090F87440104B8C421A780DD05AB9FD
:1008D0000E4A0F490F4814880F4D0C800188118073
:1008E0002980048001221A7030BD002AFCD00948FA
:1008F000074A01881180054A074D14882C80118011
:1009000004800022EFE700BF0C9F0020089F00201A
:100910000E9F00200A9F0020109F002000F01CBCAA
:10092000012108B50022084604F0AEFF064B4FF047
:10093000FF31186004F0FEFF00220421012005F0C1
:100940006DF8024B186008BD900100208C0100205A
:1009500008B5074B186828B9064B074A07483121E4
:1009600016F016FF4FF0FF31BDE8084004F0E2BF7B
:1009700090010020068A01089F8A0108178A010851
:1009800008B5064B186828B9054B064A06483A21AF
:1009900016F0FEFEBDE8084005F008B89001002002
:1009A000068A0108628A0108178A010808B5074B00
:1009B000186828B9064B074A0748472116F0E8FE91
:1009C0000021BDE8084004F0B5BF00BF9001002041
:1009D000068A0108DC8A0108178A010808B5064B57
:1009E000186828B9054B064A0648542116F0D0FE6F
:1009F000BDE8084004F0DABF90010020068A010833
:100A00001C8B0108178A0108044B186820B10023C9
:100A10001A46034905F048B8704700BF8C01002012
:100A20000400002013B5084C206858B100231A4672
:100A300001A905F07BF84FF0FF33002201A92068DF
:100A400005F074F802B010BD8C01002003685B6CE7
:100A500018470020704703689B6A184740F2EF1060
:100A60007047000010B5074C074B2360204602F08A
:100A7000E1FC064B2361064B6361064B4FF080623D
:100A80009A6010BD30A3002000B00240B50A0008F3
:100A9000990A000800E100E008B5034A034B044846
:100AA000362116F075FE00BFFC8B0108C7950108C2
:100AB000608B0108024B1B68586803685B69184724
:100AC000149F0020084B10B503600446074802F04D
:100AD00079FD074B4FF08062C3F88820BFF34F8F3A
:100AE000BFF36F8F204610BDB48B010830A30020E8
:100AF00000E100E010B50446FFF7E4FF20464FF4A4
:100B0000426116F019FE204610BD0000044B1B6820
:100B100093F876200AB1D86C00B99868704700BF86
:100B2000149F00202DE9F7430D68202D0C4600F09E
:100B30009780402D00F094802A1F56425641802D08
:100B400000F09080A5F580735D425D41FFF7DEFF08
:100B50000368DB6998472368402B864600F099803C
:100B600000F28280042B00F08D80202B00F0918019
:100B7000BEF1100F14BF4FF0010C4FF0020C002219
:100B80004B4BB4F810801968E78AD1F800905A608E
:100B9000BEF1100F29F4403914BF01200220A7EB49
:100BA000080749EA02029860DF600A604A6BC3F8EE
:100BB0002CC022F0070202434A630A6C22F47F52DF
:100BC00022F03F023A430A64A28AA2EB08029A6228
:100BD00006B995B3227FFF2A15BF02210022C3E97F
:100BE0000C121A631DB3227FA169BEF1100F4FEAE8
:100BF000026C51D14FF01F08C1F3C422C2EB022294
:100C0000B2FBF8FE01EA0802C2EB0222B2FBF8F2E4
:100C100042EA0C0242EA0E42C1F34511C1EB012146
:100C20004FF03F0CB1FBFCF142EA01225A63C3E9E9
:100C3000067000211E4802F085FD01211C4802F0CB
:100C400081FD238A628A06B955B3CDE90032E36893
:100C5000616817481A4602F037FC03B0BDE8F0831C
:100C600001266FE7012571E7802B06D0B3F5807F61
:100C70007FF47EAF4FF0090C01E04FF00A0C4FF407
:100C800000327DE7102814BF4FF0010C4FF0020C2A
:100C9000F5E74FF0000CF2E74CEA01015963C6E7B3
:100CA00000926168E268024802F0F0FBD5E700BFFD
:100CB00030A30020F7B50D46FFF728FF0368DB6976
:100CC00098471028AB69297F66D103F01F02C2EB59
:100CD00002221F20B2FBF0F4C3F3C42244EA0164F1
:100CE000C2EB0222C3F34513B2FBF0F244EA024422
:100CF000C3EB03233F220221B3FBF2F344EA0324B4
:100D00002B682748EE8A0268082B2B8AA6EB03067D
:100D10001368C6600CBF4FF400374FF4403723F41C
:100D200040333B43C0E901711360536B23F0070369
:100D30000B435363136C23F47F5323F03F0333437C
:100D4000B7F5003F13641CD10123C0E90C3409231B
:100D5000C0E90661C362002102F0F4FC01211048E1
:100D600002F0F0FCB7F5003F2B8A6A8A0DD1E968E2
:100D70000B48CDE900320B460A4602F0A5FB03B052
:100D8000F0BD0023C1628362E8E700922146EA6871
:100D9000034802F07BFBF2E743EA01640121AFE77D
:100DA00030A3002070B505462C460A4B0C300026B7
:100DB00068602E726E7244F8203B6022214607F074
:100DC00005FF05F54263A6612034A342FBD1284606
:100DD00070BD00BFB48B0108012070470C20704724
:100DE0000C2303FB0100083070470C2303FB0100B8
:100DF00008307047012070474FF48070704700EB57
:100E000001200830704700EB0120083070470120B6
:100E100070471020704700EB01100830704700EB5E
:100E2000011008307047084601F082B810B5034B36
:100E30000360044606F044FE204610BDA08C010865
:100E400010B50446FFF7F2FF2046142116F074FC9B
:100E5000204610BD10B5034B0360044606F030FE7B
:100E6000204610BD6C8C010810B50446FFF7F2FF58
:100E700020464FF4847116F05FFC204610BD000040
:100E800010B5034B0360044606F01AFE204610BD61
:100E9000388C010810B50446FFF7F2FF20461821F0
:100EA00016F04AFC204610BD10B5084B03600446FE
:100EB00000F59A70FFF7BAFF04F12C00FFF7CAFFA4
:100EC00004F11400FFF7DCFF204610BDD48C0108AC
:100ED00008B50248FFF7E8FF08BD00BF98010020F1
:100EE00010B50446FFF7E0FF20464FF4297116F0D5
:100EF00023FC204610BD00002DE9F34100F05CFF0B
:100F0000054600F05DFF00240146234622462846A0
:100F100000940AF085FF224B224A234E1A60204695
:100F200001F0EEFD21480AF0C5FE3368DB0730D43E
:100F30001F4C204B236004F5A67504F1140004F146
:100F40002C0804F59A776060C4F80880E760256192
:100F500006F0B8FD184B6361404606F0B3FD174B31
:100F6000E362384606F0AEFD154BC4F8343104F5A3
:100F7000A47001F03FFE224604F5A471284601F05A
:100F80002FFE284600F0D4FF01230E48336016F0F0
:100F90001DFC0D4802B0BDE8F041FFF7BFBC00BF2B
:100FA000909F0020D810002094010020080000200D
:100FB00098010020D48C0108388C01086C8C010841
:100FC000A08C0108D10E0008601000200148FFF736
:100FD000CFBB00BF6010002070B5264E264C274DB9
:100FE000274B23603046FFF7DDFE28460DF012FF49
:100FF000244B254858662548DC60036024480022BD
:10100000C3E901650121F024224D1A85C3E90422B8
:10101000C3E90622C3E9082283F82A20DA621A8685
:10102000C3E90E22C3E9102283F8482083F84A203E
:10103000C3E913225A6583F8682083F8692083F88E
:101040006A2083F86B2083F86C201A6783F8752078
:1010500083F8491004804FF4A07028800E4D83F867
:1010600034102A700D4A14800D4A10800D4A1A60FF
:1010700070BD00BF400400203C040020DC100020B4
:10108000048801086010002001000001149F002066
:10109000089F00200A9F00200C9F00200E9F002028
:1010A000109F0020B88801080148FFF70BBD00BF62
:1010B00040040020034B902283F85A2383F85823DE
:1010C000704700BF00E100E0094A0A49D3680A48B6
:1010D000C3F30A03013B9BB20B801169C1F30A0100
:1010E000013901801364536B43F00103536370476C
:1010F000006801405611002054110020014B986AED
:10110000704700BF84680140024B0122996243F896
:10111000602C70478468014006F0C2BE034B4FF05C
:1011200080629A604FF080729A60704700E100E040
:10113000084B4FF08062C3F88820BFF34F8FBFF396
:101140006F8F4FF08072C3F88820BFF34F8FBFF3CB
:101150006F8F704700E100E038B5044607F082F970
:101160002368DD6C08F066FF01462046A847236827
:10117000054A5D6FA2F5163100232046A8470023DB
:1011800084F84A3038BD00BF005802D0134B144ACF
:101190001B6C11888B4210B5124C13D1124B19885D
:1011A00003F0E0F9226892F86630013382F8663085
:1011B000FFF72AFC206807F0DDFB0020BDE81040A7
:1011C000FFF7BABA03F0CEF90020FFF7B6FA2068AD
:1011D0000368BDE810409B69184700BF00680140E4
:1011E00056110020149F00205411002007B5064B13
:1011F00002A91B6821F8020D0122044803F0ADFE8C
:1012000003B05DF804FB00BF1000002024A2002002
:10121000F0B5A1B0102200210AA816F042FB14225A
:10122000002103A816F03DFB0021302214A816F07F
:1012300038FB0024224B01941A6C42F080521A644D
:101240001B6C03F080530193019B1E4B02941A68A0
:1012500042F440421A601B6803F4404302930122A7
:10126000029B4FF48033CDE9082302254FF480031D
:10127000CDE90E5308274FF4A873042608A8CDE93A
:1012800010731295139603F08BF90F23CDE90335F4
:101290004FF4A0514FF48053CDE9061303A8052164
:1012A000059403F051FBC023189314A84FF40033A6
:1012B00014971A961D9303F00FFC21B0F0BD00BFE8
:1012C000003802400070004080B59AB001F0B8FFCD
:1012D000FFF79EFF142200210DA8002416F0E1FA6A
:1012E000BB4B00941A6BBB48BB4D42F020021A6303
:1012F0001A6B02F020020092009A01941A6B42F0DD
:1013000080021A631A6B02F080020192019A029421
:101310001A6B42F004021A631A6B02F00402029282
:10132000029A03941A6B42F001021A631A6B02F0DC
:1013300001020392039A04941A6B42F002021A63A8
:101340001A6B02F002020492049A05941A6B42F09E
:1013500040021A631A6B02F040020592059A069445
:101360001A6B42F010021A631A6B02F01002069216
:10137000069A07941A6B42F008021A631B6B03F07B
:101380000803079322460421079B02F011FB224623
:101390004FF44051914802F00BFB012602274FF019
:1013A00004080DA98B480F94CDE90D86109702F023
:1013B00013FA4FF440530DA98848CDE90D36CDE915
:1013C0000F4702F009FA22464FF48041844802F0A8
:1013D000EFFA4FF480490DA98148CDE90D96CDE98A
:1013E0000F4402F0F9F97F487F4B036001F0D0FF12
:1013F0007E4A7F4B2C622846C5E90023C5E9049448
:10140000C5E90244C5E9064402F0ACFC10212846B7
:1014100002F0F0FE2146284602F00BFF754876499F
:1014200084624FF48273C0E900134FF400751823EF
:10143000C0E906530A23714DC362C0E90244C0E902
:101440000444C0E9084403F04BFD6D4B0D974FF089
:10145000100CC5E900364023C5E904C34FF4C0733E
:10146000C5E906344FF40063C5E908344FF400536E
:10147000AB624FF0030A07230DA92846CDE90E38C9
:1014800010934FF00809C5E90248CDE911A7139759
:1014900003F04CFC4FF6FF7209A92846CDE90A96E5
:1014A000089409960C9403F061FC304601F0F4FEB8
:1014B0004FF6FF7209A92846CDE90979CDE90B64F9
:1014C00003F054FC4FF6FF7209A92846CDE909A99B
:1014D000CDE90B8403F04AFC4FF40C730893089B8E
:1014E0000C934FF6FF7209A92846CDE909890B969E
:1014F00003F03CFC40F26A51284603F04EFC3422D3
:1015000021460DEB020016F0CCF93E4D3E4B2C610E
:10151000C5E900340923C5E905361D2340F20D1E37
:10152000C5E9073A40F24313C5E909E340F2171849
:1015300040F24713C5E90B83C5E90244AC8685F840
:101540003640284602F01AFFFF21F022CDE912149E
:101550004FF4806905214FF4A073CDE90E24CDE945
:101560001491CDE916420DA922462846CDE910373F
:10157000264D18930D94ADF864408DF8664002F046
:10158000C8FF234B2B601B6898472B68214DDB68F5
:101590009847214BC5E90A47C5E90C442846C5E9E7
:1015A0000034C5E9027401F045FF3146284602F0D7
:1015B000C9F8FFF716F804F0D7F8184A184821467A
:1015C00004F00CF9174B186004F0E8F8FEE700BFD0
:1015D0000038024000080240D0A10020000C024068
:1015E000001802407CA2002000300240005C004055
:1015F000A086010024A200200050014070A300201A
:10160000400100A084A20020006801405811002081
:101610001400002030A3002000B00240E08C01083C
:10162000E70500082CA300207047704710B586B06E
:1016300006AC074B04F8012D1B68029301230A46F0
:10164000CDE900430146034802F038FC06B010BD66
:101650000C000020D0A100207FB506AA002302F8CC
:10166000013D084B1B6802930123CDE900230A4684
:101670000146054802F0B2FC9DF8170007B05DF87E
:1016800004FB00BF0C000020D0A100201FB5084CB7
:1016900024680092CDE901340A4601230146054839
:1016A00002F09CFC003018BF012004B010BD00BF48
:1016B0000C000020D0A1002001F0EEBD10B5064CBA
:1016C00000222046042102F073F920460122042161
:1016D000BDE8104002F06CB90008024038B50B4C70
:1016E000054601224FF40051094802F061F9002239
:1016F0000421204602F05CF92846FFF777FD2046DA
:1017000001220421BDE8384002F052B9000802402D
:10171000000C024038B50B4C054600224FF4005136
:10172000094802F045F900220421204602F040F960
:101730002846FFF75BFD204601220421BDE8384022
:1017400002F036B900080240000C0240F7B5144C14
:10175000144D07460E4620460022042102F028F9C7
:1017600000224FF40051284602F022F93846FFF7D4
:101770003DFD0D4B0D481B68324601A903F085FD68
:10178000284601224FF40051019E02F011F9204633
:101790000122042102F00CF9304603B0F0BD00BF75
:1017A00000080240000C02401000002024A200208B
:1017B00001F072BD0268034B9A4201D101F05ABD9B
:1017C000704700BF0010004082B00E4B0022009214
:1017D000596C41F480415964596C01F48041009185
:1017E00000990192196C41F0805119641B6C03F04F
:1017F00080530193019B0F216FF0010002B001F0B3
:1018000071BD00BF003802400268094B9A4282B0A5
:101810000BD100230193074B1A6B42F480521A63D9
:101820001B6B03F480530193019B02B0704700BF10
:10183000003002400038024007B50F4B02689A4260
:1018400016D10022A3F5F0430192196B41F4000177
:1018500019631B6B03F40003019305215A20019BBC
:1018600001F040FD5A2003B05DF804EB01F06EBDBD
:1018700003B05DF804FB00BF00B002400268064BF5
:101880009A4207D1054A136B23F4000313635A20CD
:1018900001F06ABD704700BF00B00240003802404E
:1018A0002DE9F043044689B01422002103A815F065
:1018B000F8FF2268244B9A4243D1244C2448002547
:1018C0000095236B43F004032363236B03F00403AD
:1018D0000093009B0195236B43F001032363236B6B
:1018E00003F001030193019B4FF012094FF40073C1
:1018F0004FF001080327042603A9CDE90339CDE9F8
:101900000587079601F068FF4FF4807303A911481B
:101910000796CDE90339CDE9058701F05DFF029512
:10192000236C43F400032364236C03F40003029349
:10193000029B236A43F400032362236A23F4000317
:10194000236209B0BDE8F083005C0040003802402B
:101950000008024000000240F0B504468DB0142299
:10196000002107A815F09DFF2268574B9A4240F0CE
:10197000A88003F55043002500955A6C534842F067
:1019800080625A645A6C02F080620092009A01955B
:101990001A6B42F020021A631A6B02F020020192C5
:1019A000019A02951A6B42F001021A631A6B02F057
:1019B00001020292029A03951A6B42F002021A6324
:1019C0001A6B02F002020392039A04951A6B42F01A
:1019D00040021A631A6B02F040020492049A0595C1
:1019E0001A6B42F004021A631A6B02F004020592A9
:1019F000059A06951A6B42F008021A631B6B03F0F6
:101A00000803069302240E26069B0A944FF4806373
:101A100007A9CDE907340B9601F0DEFE41F6580325
:101A200007A92B480B96CDE907340927CDE90954BE
:101A300001F0D2FE032307A926480B97CDE907340E
:101A4000CDE9095401F0C8FE4FF4706307A921489D
:101A50000B96CDE90734CDE9095401F0BDFE4FF4F2
:101A60000C6307A91C480B96CDE90734CDE909544E
:101A700001F0B2FEC02307A918480B96CDE9073440
:101A8000CDE9095401F0A8FE082307A914480B96D4
:101A9000CDE90734CDE9095401F09EFE4FF4A0537F
:101AA00007A90D480B97CDE90734CDE9095401F09A
:101AB00093FE58202A46052101F014FC582001F01D
:101AC00045FC0DB0F0BD00BF0068014000140240AD
:101AD00000000240000402400018024000080240DA
:101AE000000C024010B5044688B01422002103A85F
:101AF00015F0D7FE2268144B9A4223D103F56843B0
:101B0000002101915A6C114842F480125A645A6CB7
:101B100002F480120192019A02911A6B42F02002A3
:101B20001A631B6B03F020030293029B4FF4607255
:101B300002230321CDE903230523CDE9061303A9DD
:101B400001F04AFE08B010BD0050014000140240F0
:101B50002DE9F04186B01422002101A815F0A1FE64
:101B60002B4B1C68002C4FD14FF00108C3F80080AC
:101B7000284B00949A6B284842EA08029A639B6BB0
:101B800003EA08030093022703260C25009B01A902
:101B90004FF63F03CDE90137CDE9046501F01CFEA6
:101BA00001A91E480595CDE90187CDE9034601F05D
:101BB00013FE48F2331301A919480595CDE9013701
:101BC000CDE9034601F008FE4FF6837301A91548DD
:101BD0000595CDE90137CDE9034601F0FDFD4CF255
:101BE000037301A910480595CDE90137CDE90346F6
:101BF00001F0F2FD602301A90C480595CDE90137FC
:101C0000CDE9034601F0E8FD06B0BDE8F08100BF74
:101C10005C1100200038024000140240000802401D
:101C20000018024000100240000C02400004024074
:101C300030B5014689B00022362001F053FB362032
:101C400001F084FB0025154B02951A6C144C42F0F0
:101C500010021A641B6C03F01003029301A903A87D
:101C6000029B02F01BFF02F009FF0E4B236040F2C3
:101C7000E733E36040000C4BB0FBF3F001386060E9
:101C800020462561A56003F0B5FC20B9204603F08D
:101C900094FB09B030BD0120FBE700BF00380240D3
:101CA000A4A300200010004040420F007047FEE750
:101CB000FEE7FEE7FEE77047014803F092BB00BF76
:101CC000A4A30020014802F0C7BB00BF84A20020EB
:101CD000014801F0ADBC00BF30A3002001207047D7
:101CE00008B515F087FD162303604FF0FF3008BDDF
:101CF00008B515F07FFD16230360FEE770B50E46AC
:101D000015460C46A31B9D4201DC284670BDAFF36F
:101D1000008004F8010BF5E770B50E4615460C4639
:101D2000A31B9D4201DC284670BD14F8010BAFF3E4
:101D30000080F5E74FF0FF3070474FF400534B60E1
:101D400000207047012070470020704708B50A4BFB
:101D50001968024609B909491960186869460244B8
:101D60008A4206D915F046FD0C2303604FF0FF3080
:101D700008BD1A60FCE700BF6011002030A40020FD
:101D8000704710B50421044615F0D6FC204610BD5E
:101D9000012908B508D003D3022909D0002002E0A8
:101DA00000F0F8FE006808BD00F0F4FE4068FAE7B5
:101DB00000F0F0FE8068F6E700487047248D0108C7
:101DC0000720704713B5002249B102AB019203F816
:101DD000052D0268946801AAA04702B010BD08460C
:101DE000FBE7408970478089704780887047837916
:101DF0008088184480B27047C07900F07F00704737
:101E0000C079C0097047704710B50821044615F025
:101E100093FC204610BD7047704741607047704783
:101E200000F596730868496803C37047704701233B
:101E3000037270477047704710B4C46841686210FD
:101E40000346E40701EB02009B6848BF8A585DF82F
:101E5000044B48BFD358184743682BB183682BB94C
:101E6000C06800F0010070471846704701207047B5
:101E700010B50C21044615F05FFC204610BD10B5CE
:101E80004FF4AC71044615F057FC204610BD10B558
:101E90001021044615F050FC204610BD10B5044634
:101EA000D0F83C0158B10368DB68984738B1D4F8E2
:101EB0003C0103689B6898470023C4F83C3110BD7F
:101EC000F8B5044617460E4608F0D4F8144BC4F88B
:101ED00054611C60134E144B236000253068C4F815
:101EE0004851C4F84C51114BC4F840310368C4F850
:101EF00038519B68C4F83C510121C4F84451C4F8DE
:101F000050719847284600F0FBFD336893F876201F
:101F10000AB1D86C00B998680EF0B5FB2046F8BD40
:101F2000809F0020149F0020E08D0108C88D0108CB
:101F3000064BC0F848310023C0F84C3100F5A073BF
:101F4000C0F84401C0F83C31704700BFB120000820
:101F5000064BC0F848310023C0F84C3100F5A0739F
:101F6000C0F84401C0F83C31704700BF1922000896
:101F70002DE9F04707469068DDF820A099460368F0
:101F80001B6A884614469847FF2805D8424B434AA7
:101F9000A721434815F0FCFB606803681B6A98475B
:101FA0000F2803D83F4B3D4AA821F2E7E0680368B9
:101FB0001B6A98470B2803D83B4B384AA921E8E70E
:101FC00008F038F808F03CF8D9F8000010B10368C0
:101FD000DB689847D9F8000010B103681B68984780
:101FE000386810B103685B699847D8F8000010B1F1
:101FF00003685B689847386810B103681B689847A6
:10200000D8F8000010B103689B689847E06803683F
:1020100000215B6A9847054620B1002343600372A4
:10202000224B0360A068036800215B6A984706465C
:1020300008B100F013FE6068036800215B6A9847EE
:10204000044610B1314600F0E7FDC9F80050C8F869
:1020500000403E60ECB1231DCAF800303368C4F87C
:1020600008A03046F463DB689847236820461B6865
:1020700098472946304609F09DF82B6828461B6989
:10208000984707F0D7FF03681B6B98472046BDE8C9
:10209000F0872346E0E700BF3C8E01085790010817
:1020A000CA8E0108118F0108B48F0108248E01081F
:1020B00007B5D0F854310093D0F85021044B00F507
:1020C0009C710448FFF754FF03B05DF804FB00BFA8
:1020D000749F0020709F00202DE9F047074690680C
:1020E000DDF820A0994603681B6A88461446984785
:1020F000FB2805D8424B434AA721434815F048FB2B
:10210000606803681B6A98470F2803D83F4B3D4A15
:10211000A821F2E7E06803681B6A98470B2803D8F8
:102120003B4B384AA921E8E707F084FF07F088FF16
:10213000D9F8000010B10368DB689847D9F80000AF
:1021400010B103681B689847386810B103685B6971
:102150009847D8F8000010B103685B689847386862
:1021600010B103681B689847D8F8000010B10368E5
:102170009B689847E068036800215B6A98470546BA
:1021800020B1002343600372224B0360A068036800
:1021900000215B6A9847064608B100F099FD606827
:1021A000036800215B6A9847044610B1314600F08D
:1021B0006DFDC9F80050C8F800403E60ECB1231D29
:1021C000CAF800303368C4F808A03046F463DB680E
:1021D0009847236820461B6898472946304608F0F0
:1021E000E9FF2B6828461B69984707F023FF03681F
:1021F0001B6B98472046BDE8F0872346E0E700BF09
:102200003C8E01085B910108CA8E0108118F0108FC
:10221000B48F0108248E010807B5D0F8543100931B
:10222000D0F85021044B00F59C710448FFF754FF8F
:1022300003B05DF804FB00BF749F0020709F002076
:10224000006A704770478B8880690A68DB0A50F81B
:1022500023001044704710B5C2B1137BB3B1547B57
:10226000D27A240204F4E0641443C26998B202EB07
:10227000840213888B4202D192F9020010BD05D866
:10228000013880B204320028F3D1F7E70020F5E7E7
:1022900010B52421044615F04FFA204610BD000069
:1022A00030B589B00446BDF850500695BDF84C5085
:1022B00005959DF8405004959DF83C5003959DF878
:1022C000385002959DF8345001959DF83050009596
:1022D00008F074FB054B2360119BA361129BE36123
:1022E000159B2362204609B030BD00BF68920108EB
:1022F00070B51E460368BDF910505B6B04469847E5
:102300002368314620469A6B904723682946204629
:10231000DB6BBDE87040184781807047C180704713
:1023200070B503680446DB6A15469847236829465A
:1023300020461B6BBDE87040184701817047418102
:10234000704770477047704770477047C388D21A0C
:102350008388C91A036810B45B6D5DF8044B12B230
:1023600009B218474FF6FF7383814FF0FF330362C2
:102370001368C361106070477047704770477047BB
:10238000704790F825201AB190F8242002B1186007
:10239000704790F82C00704770477047704770473F
:1023A000704730B4C56844686A100346ED0704EB13
:1023B00002009B6848BFA25830BC48BFD35818479A
:1023C00043682BB183682BB9C06800F001007047E7
:1023D000184670470120704710B54C21044615F08F
:1023E000ABF9204610BD10B51021044615F0A4F934
:1023F000204610BD10B54FF48071044615F09CF9CD
:10240000204610BD10B5044606F03FFC204610BD26
:1024100070B504460D4606F0E9FBA06C58B10368A0
:10242000DB68984738B1A06C03682A4621469B6850
:10243000BDE87040184770BD00F1B8028A4208B587
:1024400008D10368DB6A984707F0F4FDBDE808404F
:10245000FFF77EBD08BD0000018FF8B54FF6FF7392
:102460009942064632D01B4B1B682BB91A4B1B4AAC
:10247000B1211B4815F08CF91A4A12888A4203D8F8
:10248000194B164AB221F4E713F81120174B1B68B9
:1024900053F82250164B186800F06CFB2B68074667
:1024A00001469B6A284698472B6804461B6C3946B0
:1024B000284698472B6814FB00F45B6A3946284687
:1024C0009847E4B2204486F84500F8BD002380F820
:1024D0004530FAE7849F00203C93010834950108B9
:1024E0007E930108889F0020C59301088C9F0020DF
:1024F000909F002013460C4A70B5146805462CB90D
:102500000A4B0B4A0B48352115F042F994F8762016
:102510000AB1E06C00B9A0680268946A0A46A44651
:102520002946BDE870406047149F002017940108B9
:10253000D89401085A9401082DE9F74F044627461C
:102540000DF10808002508F0B9FC4FF6FF765C4B4A
:1025500028F8046DE56347F8403B4FF0010A594BFA
:10256000236404F16C094146A4F84450A4F8465091
:10257000A4F84850A4F84A50A4F84C50A4F84E507F
:10258000A4F85050A4F85250C4E91555E56584F8F4
:102590006450384684F865A0A4F8666084F86860E2
:1025A00006F019FC484606F059FD474BE366474BD9
:1025B000C4F8B830464BC4F8B450C4E93C34454B79
:1025C000A4F8BC50C4E93E352A46A4F8BE50A4F88D
:1025D000C050A4F8C250A4F8C450A4F8C650A4F83F
:1025E000C850A4F8CA50C4E93355C4F8D450C4F84C
:1025F000E05084F8E4502946384684F890A084F8E6
:10260000DDA084F8DCA0A4F8E660A4F8E86084F813
:10261000EA60A4F8EC60FFF783FE022341463846E7
:10262000ADF8043006F0D7FB4846FB222A49FFF7F5
:1026300077FE032342466946ADF80030484604233E
:10264000ADF8043006F010FBA4F8A4504846FFF79C
:1026500003FFFF2211461046FFF74CFF1022C4F87B
:10266000A80011461220FFF745FF04F1B80BC4F88B
:10267000AC008D2258464221FFF752FE0523ADF8EB
:10268000003006234246A4F8EC3069465846251D22
:10269000ADF8043006F0E8FA04F1F003C4F8E030D5
:1026A0003946284605F0B6FA4946284605F0B2FAFA
:1026B0002846594605F0AEFA204603B0BDE8F08F33
:1026C000A8940108A0A30108BC92010898A20108DF
:1026D0002C93010839240008F8FEFFFF704770476B
:1026E0007047704730B4C56844686A100346ED0708
:1026F00004EB02009B6848BFA25830BC48BFD358C7
:10270000184743682BB183682BB9C06800F00100FB
:102710007047184670470120704710B510210446D5
:1027200015F00AF8204610BD10B5FC21044615F03E
:1027300003F8204610BD00F1B4028A4208B508D162
:102740000368DB6A984707F075FCBDE80840FFF7AF
:10275000EFBB08BD2DE9F04F044685B027460DF1CB
:102760001008002508F0AAFB4FF6FF765A4B28F810
:10277000046DE56347F8403B4FF0010A574BA4F85E
:10278000445004F16C094146A4F84650A4F848505E
:10279000A4F84A50A4F84C50A4F84E50A4F8505055
:1027A000A4F85250C4E91555E56584F864502364D3
:1027B0003846FF2384F865A0A4F8666084F8686052
:1027C000019306F008FB484606F048FC444AC4F86A
:1027D000B420444AA4F8B850C4E93B24424AA4F8BF
:1027E000BA50C4E93D25A4F8BC50A4F8BE50A4F8E2
:1027F000C050A4F8C250A4F8C450A4F8C650C4E90C
:102800003255C4F8D050C4F8DC5084F8E0502A4661
:102810002946384684F8D9A084F8D8A0A4F8E26004
:10282000A4F8E46084F8E660A4F8E860FFF778FDB7
:10283000022241463846ADF80C2006F0CCFA484654
:10284000B6226FF0DD01FFF76BFD424602A9484654
:10285000ADF80850ADF80CA006F006FA4846A4F80A
:10286000A4A0FFF7F9FD019B1A4619461846FFF789
:1028700041FE019BC4F8A8001A4619461846FFF706
:1028800039FE04F1B40BC4F8AC008D225846412146
:10289000FFF746FD0623ADF8083005234246A4F8AD
:1028A000E83002A95846251DADF80C3006F0DCF9D9
:1028B00004F1EC03C4F8DC303946284605F0AAF9E7
:1028C0004946284605F0A6F92846594605F0A2F9DA
:1028D000204605B0BDE8F08F84950108A0A301084B
:1028E00098A201086C95010837270008704700007E
:1028F00030B5114D2B6813F001038BB018D13F2276
:1029000007920E4A06920E4A0393CDE9043201243F
:102910000422CDE90833CDE90124009322460A239D
:1029200008490948FFF7BCFC08482C6014F04EFF2A
:1029300005480BB030BD00BF64110020F0BD010898
:10294000B4950108FCBD010868110020ED280008BD
:102950007047000030B5114D2B6813F001038BB0A8
:1029600019D13F2207920E4A06920E4A0E490F488D
:10297000CDE90432CDE90833012403230422CDE953
:102980000032CDE9024414230922FFF789FC0848EC
:102990002C6014F01BFF05480BB030BD8C110020DB
:1029A000F4BD0108B89501080CBE01089011002083
:1029B000512900087047000030B5114D2B6813F005
:1029C00001038BB018D13F2207920E4A06920E4A9D
:1029D0000393CDE9043201240422CDE90833CDE983
:1029E000012400932246282308490948FFF758FC90
:1029F00008482C6014F0EAFE05480BB030BD00BF5B
:102A0000B4110020F8BD0108BC9501088CBE010876
:102A1000B8110020B5290008002070470EB403B596
:102A200003AB002153F8042B019307F003FE02B01F
:102A30005DF804EB03B070470CB407B504AB53F872
:102A4000042B019307F0F6FD03B05DF804EB02B030
:102A500070470000C36B10B5044673B3038E2BB9E7
:102A6000184B194AC021194814F092FEC38D00EB8F
:102A700043035B8B0BB309F0EFF8238E012B03D8D4
:102A8000134B144AC521EEE7E28D531C9BB2092B70
:102A9000194688BFA3F10A0104EB410140F63F103B
:102AA000498B814209D10A2B04EB420228BF002343
:102AB00004EB4303508B588351832046BDE81040FC
:102AC00008F0AEBFC0950108F3960108C99501084A
:102AD000139601082196010808F05CBF10B586B076
:102AE00002AC84E806001A460AAB05930193099BE1
:102AF00000932146089B06F0ADFE06B010BD000015
:102B000038B5D8B9114B12481B681249BBB11A68C5
:102B10009C681A4402605A681A440A601C446CB1EA
:102B20000D4B00221A8000F035F8054600F030F811
:102B30000A4B1C600A4B1D600A4B188038BD0A4BBB
:102B400003600A4B0B600A4B1C68E8E7DC110020AD
:102B5000E0110020E4110020E8110020849F0020F3
:102B60008C9F0020889F0020A4BE01089CBE010805
:102B7000C0BE0108044B1B6853F82100034B1B68BF
:102B800003EB4000704700BFE4110020E01100207B
:102B90000220704700487047EC11002010B5FFF785
:102BA000D9FE044C2060FFF707FF6060FFF7A0FE2E
:102BB000A06010BDEC110020704710B54FF4AC714F
:102BC000044614F0B9FD204610BD10B50446D0F8F7
:102BD000540100F012F82046BDE8104007F002B999
:102BE00010B50446FFF76CF9014B2360204610BD79
:102BF000A8970108002202607047704770470438A8
:102C00007047704710B51021044614F095FD20461A
:102C100010BDA0F10400F5E710B500228260044A5F
:102C2000C16002F1080420320460426010BD00BFA0
:102C3000E497010870477047FFF7B0BB01224FF4DB
:102C40008041014800F0B4BE0018024010B54FF4B6
:102C50008071044614F070FD204610BD10B5044686
:102C6000FFF76AFC014B2360204610BD1498010851
:102C7000704704387047704710B51021044614F0AF
:102C80005BFD204610BDA0F10400F5E710B5002261
:102C90008260044AC16002F108042032046042608C
:102CA00010BD00BF4498010870477047FFF718BD7A
:102CB00000224FF48041014800F07ABE0018024023
:102CC00010B5FC21044614F037FD204610BD00006D
:102CD00010B50446FFF73EFD014B2360204610BDB2
:102CE00074980108F02070474FF4A07070472920B5
:102CF000FEF710BD2820FEF70DBD08B5FEF7DEFC7F
:102D0000CA20FEF707FDC320FEF7E8FC0820FEF707
:102D1000E5FC5020FEF7E2FCCF20FEF7FBFC002094
:102D2000FEF7DCFCC120FEF7D9FC3020FEF7D6FC14
:102D3000ED20FEF7EFFC6420FEF7D0FC0320FEF749
:102D4000CDFC1220FEF7CAFC8120FEF7C7FCE8206C
:102D5000FEF7E0FC8520FEF7C1FC0020FEF7BEFC7C
:102D60007820FEF7BBFCCB20FEF7D4FC3920FEF721
:102D7000B5FC2C20FEF7B2FC0020FEF7AFFC34209F
:102D8000FEF7ACFC0220FEF7A9FCF720FEF7C2FC20
:102D90002020FEF7A3FCEA20FEF7BCFC0020FEF793
:102DA0009DFC0020FEF79AFCB120FEF7B3FC00204A
:102DB000FEF794FC1B20FEF791FCB620FEF7AAFC60
:102DC0000A20FEF78BFCA220FEF788FCC020FEF74D
:102DD000A1FC1020FEF782FCC120FEF79BFC102016
:102DE000FEF77CFCC520FEF795FC4520FEF776FC3F
:102DF0001520FEF773FCC720FEF78CFC9020FEF731
:102E00006DFC3620FEF786FCC820FEF767FCF2203A
:102E1000FEF780FC0020FEF761FCB020FEF77AFC94
:102E2000C220FEF75BFCB620FEF774FC0A20FEF71A
:102E300055FCA720FEF752FC2720FEF74FFC04208C
:102E4000FEF74CFC2A20FEF765FC0020FEF746FC4E
:102E50000020FEF743FC0020FEF740FCEF20FEF7C9
:102E60003DFC2B20FEF756FC0020FEF737FC00202F
:102E7000FEF734FC0120FEF731FC3F20FEF72EFC6C
:102E8000F620FEF747FC0120FEF728FC0020FEF7A5
:102E900025FC0620FEF722FC2C20FEF73BFCC82078
:102EA000FEF786FC2620FEF735FC0120FEF716FC17
:102EB000E020FEF72FFC0F20FEF710FC2920FEF784
:102EC0000DFC2420FEF70AFC0C20FEF707FC0E2068
:102ED000FEF704FC0920FEF701FC4E20FEF7FEFB86
:102EE0007820FEF7FBFB3C20FEF7F8FB0920FEF7FD
:102EF000F5FB1320FEF7F2FB0520FEF7EFFB172092
:102F0000FEF7ECFB1120FEF7E9FB0020FEF7E6FBE5
:102F1000E120FEF7FFFB0020FEF7E0FB1620FEF7A6
:102F2000DDFB1B20FEF7DAFB0420FEF7D7FB1120A8
:102F3000FEF7D4FB0720FEF7D1FB3120FEF7CEFBD6
:102F40003320FEF7CBFB4220FEF7C8FB0520FEF73F
:102F5000C5FB0C20FEF7C2FB0A20FEF7BFFB2820B2
:102F6000FEF7BCFB2F20FEF7B9FB0F20FEF7B6FBE8
:102F70001120FEF7CFFBC820FEF71AFC2920FEF730
:102F8000C9FB2C20BDE80840FEF7C4BB08B5FEF71E
:102F900095FB0321D320FEF7D9FB80B208BD10B505
:102FA000C4B2022203212046FEF740FB0A20FEF7AE
:102FB00083FB204600220321FEF738FB0220BDE8F8
:102FC0001040FEF779BB38B50446E4B2FEF72CFB9F
:102FD00000212046FEF740FB012105462046FEF772
:102FE0003BFB40EA052080B238BD10B5C4B2402199
:102FF0002046FEF731FB030607D54C212046FEF79D
:103000002BFB003018BF012010BD01224B212046B0
:10301000FEF70CFB204600224B21FEF707FB0020A9
:10302000F2E773B50423C4B20E461546D7210DEB63
:1030300003022046FEF72AFB019B1BBA1A0DC3F3BD
:103040000B23328020462B8001224B21FEF7EEFA23
:1030500000224B212046FEF7E9FA02B070BD0000C5
:1030600010B50A4A1378984204460DD05178884228
:103070000AD00BB141B90123D454FEF7D5FA20464A
:10308000BDE81040FFF78BBF10BD00BFF811002056
:1030900010B5C4B209212046FEF7DEFA40F0010265
:1030A000D2B220460921BDE81040FEF7BFBA10B5E4
:1030B000C4B209212046FEF7CFFA092100F0FE0232
:1030C0002046BDE81040FEF7B1BA38B5C5B20C468F
:1030D00028460A21FEF7C0FA40EA0402D2B2284686
:1030E0000A21BDE83840FEF7A1BA10B50446FEF744
:1030F0009CFA20461F21FFF7E8FF2046BDE810405C
:10310000FFF7C6BF38B5C5B20C4628460A21FEF700
:10311000A3FA20EA0402D2B228460A21BDE83840C8
:10312000FEF784BA10B50446FFF7C1FF20461F2101
:10313000BDE81040FFF7E6BF10B5C0B20C460B214A
:10314000FEF78AFA204010BD1F21FFF7F5BF0A469F
:10315000C0B20B21FEF76ABA1F21FFF7F8BF38B5DE
:10316000C5B20C4628461721FEF776FA20EA04027B
:10317000D2B228461721BDE83840FEF757BA70B5DD
:10318000C4B2064604212046FEF766FA042100F088
:10319000FB0205462046FEF749FA3046F021FFF7CC
:1031A000DEFF05F0F80220460421FEF73FFA49222F
:1031B00020212046FEF73AFA0220FEF77DFA20464B
:1031C00001222121FEF732FA20469A224121FEF700
:1031D0002DFA204601224A21FEF728FA2046012234
:1031E0004B21FEF723FA204600224B21FEF71EFA60
:1031F000204601225621FEF719FA204601225821C5
:10320000FEF714FA204601224021FEF70FFA20466D
:10321000FF220B21FEF70AFA0220BDE87040FEF7FC
:103220004BBA0000054BD3F8882042F47002C3F873
:1032300088204FF000629A60704700BF00ED00E008
:1032400008B50B4B1A6842F400721A601A6842F40F
:1032500080621A601A6842F480721A60032000F0DB
:103260002FF80020FEF7E4FCFEF7AEFA002008BDC0
:10327000003C0240034A044B11681B780B44136066
:10328000704700BFE4A3002078000020014B1868BD
:10329000704700BFE4A3002038B50446FFF7F6FFEF
:1032A000631C1CBF054B1B78054618BFE418FFF7CD
:1032B000EDFF401BA042FAD338BD00BF78000020CC
:1032C000074AD36823F4E0631B041B0C43F0BF637D
:1032D000000243F4003300F4E0600343D36070471E
:1032E00000ED00E0174B70B5DC68C4F30224C4F1B4
:1032F0000705042D04F1040328BF04254FF0FF3611
:10330000062B06FA05F38CBF033C002421EA0303D5
:10331000A34006FA04F422EA0404002843EA040362
:10332000A8BF00F160404FEA0313BCBF00F00F00DC
:10333000054ADBB2AABF00F56140135480F80033A0
:1033400070BD00BF00ED00E014ED00E0002808DBD8
:103350004209012300F01F0003FA00F0014B43F87B
:103360002200704700E100E000280DDB4309012244
:1033700000F01F0002FA00F02033044A42F8230054
:10338000BFF34F8FBFF36F8F704700BF00E100E0C6
:1033900010B5044650B1437903F0FF0213B902712E
:1033A000FEF732FA01236371002010BD0120FCE713
:1033B00070B50468049D666C45EA034306F0404618
:1033C000334363644368E263B3F5403F30D18668BA
:1033D0001EB1012E03D121F07F41A16370BD022EE9
:1033E00001F47F0301F47F45C8B207D1D90CAD0ABF
:1033F000C90241EA451141EAD001EEE7032E01F08E
:103400007F420AD1DB0CED0A9B0243EA451343EAF3
:10341000D003D10F43EAC131DFE7190D2D0B0902AB
:1034200041EA051141EA1011130F41EA0331D4E7D3
:10343000E160D3E710B5044630B390F8393003F0BB
:10344000FF021BB980F83820FEF7F6F922686168A0
:10345000022384F83930136823F440330B4313609C
:10346000536BA16823F007030B435363136CE168AC
:1034700023F47F5323F03F030B4313640020012305
:10348000E06384F8393010BD0120FCE773B590F893
:103490003840012C05464FF0020413D080F8394023
:1034A0000126069C80F838600094FFF781FF2B68A6
:1034B0001A6842F40C521A601A6832431A600020EB
:1034C00002B070BD2046FBE773B515461A4690F86A
:1034D0003830012B04464FF0020316D080F8393003
:1034E0000368012680F838605D61079B0093069BA6
:1034F000FFF75EFF23681A6842F40C521A601A68DC
:1035000032431A60002002B070BD1846FBE7026823
:1035100038B5136823F0050343F004031360044631
:10352000FFF7B4FE05462368186810F0010009D1C2
:103530001A6822F40C521A60012384F8393084F896
:1035400038000FE0FFF7A2FE401BB0F57A7FEAD902
:10355000E36B43F02003E3630320002384F8390086
:1035600084F8383038BD70B505682A6842F0040226
:103570002A600129044614BF24351C35FFF786FE56
:103580000646286810F020000AD12268136823F448
:1035900064531360012384F8393084F838000FE055
:1035A000FFF774FE801BB0F57A7FEAD9E36B43F036
:1035B0002003E3630320002384F8390084F83830C3
:1035C00070BD000038B5054608B9012038BD164B5E
:1035D0001B6B190213D42B6800243F221C60284661
:1035E0009A601C619C61DC615C625C63FEF746F979
:1035F000EC6385F8384085F839402046E6E70368F3
:10360000196811F0010104D0FFF781FF0028E2D012
:10361000DBE75A6A920602D5FFF7A5FFF6E7DB69FA
:103620009B06D8D50121F7E7003802407047704764
:10363000036870B55E681D68F207044614D5E90595
:1036400012D51A6822F480721A60C26B42F001022D
:10365000C26301229A60042380F83930002380F885
:103660003830436903B19847B20616D5AB0414D578
:1036700023681A6822F400521A6020229A60E36BD1
:1036800043F00203E363042384F83930002384F811
:10369000383063690BB120469847300716D52905A5
:1036A00014D523681A6822F400621A6008229A600E
:1036B000E36B43F00403E363042384F8393000230D
:1036C00084F8383063690BB12046984772070BD5F0
:1036D0006B0509D523681A6822F480621A600422F7
:1036E0009A602046FFF7A2FFB00714D5A90512D5AE
:1036F00023681A6822F400721A6002229A60E36B4F
:10370000E363012384F83930002384F838302369D7
:103710000BB120469847F20613D5EB0411D5236868
:103720001A6822F480521A6010229A60E36BE363F5
:10373000012384F83930002384F838302046FFF71D
:1037400076FF70BD90F83830012BF0B54FF00203D2
:1037500036D00E01012280F83930831980F83820E4
:10376000D3E9075245EA0242093D012D5C6A194F2F
:1037700003680FD804F07F4C4CEA020269B9596A19
:1037800039400A435A6282699A61426A22F07F4252
:103790009A620FE042EA0462A1B1D9690644394055
:1037A0000A43012DDA6198BF24F07F44B2691A619F
:1037B00098BF1C62012380F83930002380F838302C
:1037C0001846F0BD596A39400A435A6282699A61C3
:1037D000F0E700BFF0FFFC002DE9F04F85B00B686B
:1037E000DFF8C4816E4ADFF8C491019300230124FD
:1037F000019D9C402540AC4240F0B8804C6824F0CC
:10380000100C4FEA430E03260CF1FF3706FA0EF6B2
:10381000012F6FEA060611D8876807EA060ACF6803
:1038200007FA0EF747EA0A078760476827EA050A9A
:10383000C4F300179F4047EA0A074760C76807EAD2
:10384000060A8F6807FA0EF747EA0A07BCF1020F6B
:10385000C76016D14FEAD30A00EB8A0A03F0070BC0
:10386000DAF820704FEA8B0B4FF00F0C0CFA0BFCC0
:1038700027EA0C0C0F6907FA0BF747EA0C07CAF89E
:10388000207007683E4004F0030707FA0EFE4EEA78
:1038900006060660E60069D54FF0000BCDF80CB0C7
:1038A000D8F844703F4E47F48047C8F84470D8F8C1
:1038B000447007F480470397039F23F0030707F141
:1038C000804707F59C3703F0030ED7F808A04FEAAE
:1038D0008E0E4FF00F0C0CFA0EFCB0422AEA0C0CC4
:1038E0004BD006F58066B04249D006F58066B042FE
:1038F00047D006F58066B04245D006F58066B042F6
:1039000043D0484543D006F50066B04241D006F5A5
:103910008066B0423FD006F58066B0423DD006F5E5
:103920008066B04214BF0A26092606FA0EF646EA59
:103930000C06BE601668EF4314F4803F0CBF3E4097
:103940002E431660566814F4003F0CBF3E402E43D1
:103950005660966814F4801F0CBF3E402E4396605C
:10396000D668A40254BF3E402E43D6600133102BCC
:103970007FF43DAF05B0BDE8F08F5E46D5E7012688
:10398000D3E70226D1E70326CFE70426CDE70526B5
:10399000CBE70626C9E70726C7E70826C5E700BF25
:1039A000003C014000000240003802400014024088
:1039B0000AB1816170470904FBE701684B6913F4A0
:1039C00080634FF0000210D06FF480634B612023BE
:1039D000026380F83D3080F83E20036C80F83C2084
:1039E00043F00403036401207047184670472DE933
:1039F000F0410446164698468FB22568686937EA52
:103A0000000017D06B695A0516D52B6843F4007374
:103A10002B606FF480636B6120220023236384F8A2
:103A20003D2084F83E30226C42F00402226484F887
:103A30003C300120BDE8F081731CDFD0FFF726FC8D
:103A4000A0EB0800B04201D8002ED6D100232022DE
:103A5000236384F83D2084F83E30226C42F020023B
:103A6000E4E770B504460D46164623685B695B07BC
:103A700001D5002070BD2046FFF79FFFA8B96A1C42
:103A8000F3D0FFF703FC801BA84201D8002DECD136
:103A900000232022236384F83D2084F83E30226CEA
:103AA00084F83C3042F0200222640120E2E770B545
:103AB00004460D4616462068436913F0400301D0C2
:103AC000002010E04269D2060ED56FF0100242616C
:103AD0002022236384F83D2084F83E30226C226447
:103AE00084F83C30012070BDFFF7D0FB801BA8425A
:103AF00001D8002DDFD100232022236384F83D204C
:103B000084F83E30226C42F02002E8E72DE9F843C9
:103B1000089E044690461F464FEA11498DB221681F
:103B2000B9F1010F0CBF4B698B6935EA03030CBF78
:103B300001230023984501D0002016E07B1CEFD024
:103B4000FFF7A4FB801BB84201D8002FE7D1002368
:103B50002022236384F83D2084F83E30226C84F8D0
:103B60003C3042F0200222640120BDE8F88370B5A9
:103B700004460D46164623685B691B0601D50020E6
:103B800070BD2046FFF719FFA8B96A1CF3D0FFF7F4
:103B90007DFB801BA84201D8002DECD10023202200
:103BA000236384F83D2084F83E30226C84F83C3056
:103BB00042F0200222640120E2E700002DE9FF41EB
:103BC000154602680B9E9846136843F48073136091
:103BD0000F460A9B009600224FF001110446FFF7A2
:103BE00095FF236838B11B68DB0502D54FF40073DD
:103BF000236403200AE007F0FE071F610A9A1949AF
:103C000033462046FFF7F3FE18B1012004B0BDE8AB
:103C1000F081236803905A6903929B6903933246AB
:103C20000A99039B2046FFF7A2FF40B1236C042BA7
:103C300001BF2268136843F400731360E5E7B8F12D
:103C4000010F236802D1EDB21D61DFE72A0A1A6174
:103C50000A9932462046FFF78AFF0028E6D12368FA
:103C6000F1E700BF020001002DE9FF41984603681B
:103C70000B9D16461A6842F480621A601A6842F474
:103C800080721A600F460A9B009500224FF00111C6
:103C90000446FFF73BFF236848B11B68DB0502D5EC
:103CA0004FF400732364032004B0BDE8F081FFB239
:103CB00007F0FE021A612A490A9A2B462046FFF7AE
:103CC00096FE08B10120EFE7236803905A6903923A
:103CD0009B6903932A460A99039B2046FFF747FFF7
:103CE00040B1236C042B01BF2268136843F40073B6
:103CF0001360E7E7B8F1010F236825D1F6B21E6122
:103D00002A460A992046FFF732FF02460028E8D1EA
:103D100021680B6843F480730B6020460A9B009572
:103D20004FF00111FFF7F2FE23680028B5D147F0EC
:103D300001071F610A9A0A492B462046FFF757FEE2
:103D4000003018BF0120AFE7320A1A610A992A46EB
:103D50002046FFF70CFF0028C3D12368CEE700BF41
:103D60000200010070B5044608B9012070BD90F84A
:103D70003D3003F0FF021BB980F83C20FDF790FDB9
:103D8000242384F83D3023681A6822F001021A6067
:103D90001A6842F400421A601A6822F400421A605B
:103DA00000F06CFE6368414A93424DD8404A90420D
:103DB000DBD922683F495568B0FBF1F125F03F059A
:103DC0000D435560156A25F03F0501312943116205
:103DD000D169364D21F44F41AB4221F0FF0100F192
:103DE000FF3048D85B00B0FBF3F0431CC3F30B0378
:103DF000042B38BF04230B43D361D4E90730116887
:103E0000034321F0C0010B4313609168D4E903031D
:103E100021F40341034321F0FF010B439360D4E9F4
:103E20000530D168034321F0FF010B43D3601368D1
:103E300043F00103136000202023206484F83D3008
:103E4000206384F83E0091E71B4A90428DD9226896
:103E5000184E5568B0FBF6F625F03F053543556022
:103E6000156A4FF49671714325F03F054FF47A7649
:103E7000B1FBF6F1A9E7A56855B903EB4303B0FB25
:103E8000F3F0431CC3F30B036BB143F40043B2E7FD
:103E900019256B43B0FBF3F0431CC3F30B0313B1C1
:103EA00043F44043A7E70123A5E700BFA086010034
:103EB0007F841E0040420F00FF083D002DE9F743BC
:103EC000044699460F4690460C9EFFF7DFF994F89A
:103ED0003D30202B054603D0022003B0BDE8F0831F
:103EE0000090192301223B492046FFF70FFE0028CE
:103EF000F2D194F83C30012BEED0012384F83C3011
:103F000023681A68D1075EBF1A6842F001021A607E
:103F10001A6822F400621A60212384F83D3040239D
:103F200084F83E30002323640A9B6362BDF82C3082
:103F30006385638D2385284BE362CDE900654B469D
:103F4000424639462046FFF739FE00282AD0012094
:103F5000C3E7FFF70CFE40B1236C042B01BF2268BE
:103F6000136843F400731360F1E7636A27681A4625
:103F700012F8011B39616262628D218D013A92B2A1
:103F800062857A69481E80B2520720850AD548B1F9
:103F90005A783A6102336362638D013B02399BB206
:103FA00021856385238D2A4631462046002BD0D1BA
:103FB000FFF757FD0028CFD12268136843F4007340
:103FC0001360202384F83D3084F83C0084F83E00E0
:103FD00083E700BF020010000000FFFF2DE9F0435F
:103FE000044687B099460D469046109FFFF74EF95C
:103FF00094F83D30202B064604D00225284607B011
:10400000BDE8F08300901923012277492046FFF78D
:104010007DFD0028F1D194F83C30012BEDD0012337
:1040200084F83C3023681A68D0075EBF1A6842F0F3
:1040300001021A601A6822F400621A60222384F8CE
:104040003D30402384F83E30002323640E9B63629E
:10405000BDF83C306385638D2385644BE36229465C
:10406000CDE900764B4642462046FFF7FDFD05466A
:1040700008B10125C2E7228D236892B902905A69DE
:1040800002929A690292029A1A6842F400721A60C5
:10409000202384F83D30002384F83E3084F83C30FF
:1040A000ACE7012A2CD11A6822F480621A600390CE
:1040B0005A6903929A690392039A1A6842F4007249
:1040C0001A60DFF82C81238D002BE1D0032B6ED8F2
:1040D000012B2DD1324639462046FFF7E8FC002857
:1040E000C7D123681A69636A1A70636A013363620D
:1040F000238D013B2385638D013B9BB26385E2E702
:10410000022A0ED11A6822F480621A601A6842F4F8
:1041100000621A6004905A6904929B690493049B9C
:10412000CFE705905A6905929B690593059BC8E7FF
:10413000022B00963B464FF000024146204619D123
:10414000FFF7E4FC002894D123681A6842F4007257
:104150001A601A69636A1A70626A531C6362238D5B
:10416000013B2385638D013B9BB2638523681B69FB
:104170005370BAE7FFF7CAFC024600287FF479AF14
:104180002368196821F4806119601969636A1970DC
:10419000636A009601336362238D013B2385638D3F
:1041A000013B9BB2638541463B462046C8E7324609
:1041B00039462046FFF77BFC00287FF45AAF23687E
:1041C0001A69636A1A70626A531C6362238D013B29
:1041D0002385638D013B9BB2638523685969490739
:1041E0007FF571AFC3E700BF020010000000FFFFC2
:1041F0000400010090F83D20D2B2202A10B516D15B
:10420000242380F83D3003681C6824F001041C60FE
:104210005C6A24F010045C625C6A2143596219688C
:1042200041F00101196080F83D20002010BD0220FE
:10423000FCE730B590F83D40E4B2202C16D102687E
:10424000242380F83D30156825F001051560556A76
:104250004FF6F0732B400B439BB25362136843F04D
:104260000103136080F83D40002030BD0220FCE7D0
:104270002DE9F043D20104684F68E568D1F800C029
:10428000D1F818908432A3180CF10106586800F494
:1042900070405860E068C5F30B45C0F30B403044F4
:1042A0003D4440EA05405860E068CD68C0F30A002C
:1042B0000544986800F470409860E6688868C6F322
:1042C0000A060130304440EA0540986018690E69DA
:1042D00020F0070018614FF0000E1E619D6991F8F3
:1042E000320091F83180C3F818E091F8305045EA77
:1042F000096545EA082545EA00459D61586920F0B1
:10430000FF00586148695861D86920F4E06020F0E6
:104310000700D861D1E907500543DD61986A486A12
:10432000C3F828E098621EB3012E23D0B01E0228E5
:1043300022D9072E0CBF02200120DD6A05F0E025FE
:10434000DD628D6AC96AA7EB0C07454378430330E9
:1043500040EA0540D862186B20F4FF6020F00700A7
:1043600018631963A35843F00103A350BDE8F08319
:104370000420E2E70320E0E70220DEE738B5044648
:10438000002863D090F8A13003F0FF021BB980F839
:10439000A020FDF7E1FA022384F8A13023689A698E
:1043A00022F070429A61D4E901200243E0689969E1
:1043B0000243206902430A439A619A68244960696A
:1043C0000A409A609A6842EA0042A06902439A60F1
:1043D000DA68E0690A40DA60DA6842EA0042206A94
:1043E0000243DA601A69606A0A401A611A6942EA8D
:1043F0000042A06A02431A615A69114059615A6920
:10440000E16A42EA0142216B0A435A61D96A94F88F
:10441000360094F8355001F07F41D962D96A94F89A
:1044200034200A4342EA052242EA0042DA625A6B29
:1044300042F006025A639A6942F001029A61002032
:104440000123C4F8A40084F8A13038BD0120FCE7A2
:1044500000F800F070477047036870B59E6B5D6BA5
:104460007207044614D5690712D55A6B22F004026C
:104470005A630422DA63D0F8A43043F00103C0F891
:10448000A430002380F8A12080F8A030FFF7E2FFDD
:10449000B20716D5AB0714D523685A6B22F0020277
:1044A0005A630222DA63D4F8A4301343C4F8A43068
:1044B000042384F8A130002384F8A0302046FFF7BD
:1044C000C9FFF00710D5E9070ED523685A6B22F013
:1044D00001025A630122DA63002384F8A12084F8E0
:1044E000A0302046FCF752FE320711D52B070FD51E
:1044F00023685A6B22F008025A630822DA63012308
:1045000084F8A130002384F8A0302046FFF7A3FFF1
:1045100070BDF8B590F8A030012B06468C46964643
:104520004FF002001DD034240D4686F8A10004FB94
:1045300002640FCD0127383486F8A0700FC40FCD68
:104540000FC40FCD0FC42B682360304672466146FE
:10455000FFF78EFE336800205F6286F8A17086F850
:10456000A000F8BD90F8A030012B4FF0020312D04C
:1045700080F8A13003685A6B22F001025A63074A9F
:1045800011645A6B42F001025A63012380F8A13092
:10459000002380F8A0301846704700BF0068014033
:1045A0002DE9F341044608B901203FE00368DD0727
:1045B00010D4236898075AD423681A0700F19C8006
:1045C00023685B0700F1BA80A069002840F01B81D6
:1045D00000202BE0A74B9A6802F00C02042A07D0B7
:1045E0009A6802F00C02082A0AD15B68590207D5C2
:1045F000A04B1B689A03DCD56368002BD9D1D3E7A5
:1046000063689C4DB3F5803F13D12B6843F480332E
:104610002B60FEF73BFE974D06462B689B03C8D4E4
:10462000FEF734FE801B6428F7D9032002B0BDE8F2
:10463000F081B3F5A02F04D12B6843F480232B60C5
:10464000E3E72A6822F480322A602A6822F4802272
:104650002A60002BDDD1FEF719FE06462B689F036A
:10466000A7D5FEF713FE801B6428F7D9DDE7814B41
:104670009A6812F00C0F07D09A6802F00C02082A10
:1046800011D15B685E020ED47A4B1A68950702D589
:10469000E268012A88D11A68216922F0F80242EA08
:1046A000C1021A6088E7E268734BB2B101221A6056
:1046B000FEF7ECFD6F4D06462B68980707D52B6873
:1046C000226923F0F80343EAC2032B6074E7FEF784
:1046D000DDFD801B0228EFD9A7E71A60FEF7D6FDA3
:1046E000644D06462B6899077FF566AFFEF7CEFD51
:1046F000801B0228F6D998E76269604B7AB10122E3
:104700001A60FEF7C3FD5B4D06466B6F9F073FF5D2
:1047100057AFFEF7BBFD801B0228F6D985E71A606C
:10472000FEF7B4FD534D06466B6F98077FF548AF13
:10473000FEF7ACFD801B0228F6D976E74D4B1A6CCC
:1047400012F0805228D101921A6C42F080521A6401
:104750001B6C03F080530193019B0126484D2B688D
:10476000D9051BD5A368434D012B27D12B6F43F0EF
:1047700001032B67FEF78AFD3E4D074641F288385C
:104780002B6F9B0739D5002E3FF41EAF394A136CAF
:1047900023F08053136417E70026DFE72B6843F408
:1047A00080732B60FEF772FD07462B68DA05D9D4BB
:1047B000FEF76CFDC01B0228F7D936E7052B04D1A4
:1047C0002B6F43F004032B67D0E72A6F22F001021E
:1047D0002A672A6F22F004022A67002BCAD1FEF74B
:1047E00055FD41F2883807462B6F9807CBD5FEF769
:1047F0004DFDC01B4045F7D917E7FEF747FDC01B2D
:104800004045BDD911E71B4DAB6803F00C03082BE5
:1048100047D01C4E00230228336035D1FEF736FD09
:1048200007462B6899011ED4D4E907321343626A04
:1048300043EA8213E26A43EA0263A26A0D4C520819
:10484000013A43EA02436B6001233360FEF71EFD29
:10485000054623689A013FF5BBAEFEF717FD401BE6
:104860000228F6D9E1E6FEF711FDC01B0228D8D9CF
:10487000DBE600BF0038024000004742800E47429E
:104880000070004060004742FEF700FD04462B68C0
:104890009B017FF59DAEFEF7F9FC001B0228F6D9BF
:1048A000C3E601283FF4C2AE6868E36900F4800201
:1048B0009A427FF479AE226A00F03F0393427FF47C
:1048C00073AE626A47F6C073034093427FF46CAEE6
:1048D000A26A00F4403393427FF466AEE36A00F0CC
:1048E0007060C01A18BF0120A0E600BF134908B5C8
:1048F0008B6803F00C03042B03D0082B03D0104863
:1049000000E0104808BD4A684B68496813F480030A
:1049100014BF0C480A48C1F3881118BF002302F0E5
:104920003F02A1FB0001FBF7B3FC044B5B68C3F340
:10493000014301335B00B0FBF3F0E3E700380240D2
:104940000024F40000127A002DE9F0410D460446DF
:1049500010B90120BDE8F081434B1A6802F00F0244
:104960008A4228D321688F072DD4C80740D43E4BF4
:104970001A6802F00F02AA4265D8226851076BD468
:10498000130707D5394A2169936823F4604343EA42
:10499000C1039360FFF7AAFF344B354A9B68C3F30A
:1049A0000313D35CD840334B1860334B1868FDF7C2
:1049B0003FF90020CEE7CAB21A701B6803F00F035C
:1049C0008B42C6D1CEE7294B11F0040F1EBF9A6867
:1049D00042F4E0529A600E0742BF9A6842F4604285
:1049E0009A609A68A06822F0F00202439A60BCE7DD
:1049F00062681E4B012A1CD11B6813F4003FA8D02B
:104A00001A4EB36823F003031343B360FEF73EFC72
:104A100041F288380746B368626803F00C03B3EBD1
:104A2000820FA4D0FEF732FCC01B4045F3D903200F
:104A300090E7911E01291B6802D813F0007FDEE782
:104A400013F0020FDBE7EAB21A701B6803F00F03E2
:104A5000AB427FF47EAF90E70449E0688B6823F4B3
:104A6000E05303438B608BE7003C02400038024078
:104A7000A4980108740000207C000020044B054A23
:104A80009B68C3F38223D35C034A1068D840704705
:104A900000380240B4980108740000200F2303601E
:104AA0000B4B9A6802F0030242609A6802F0F0022F
:104AB00082609A6802F4E052C2609B68DB0803F4EB
:104AC000E0530361034B1B6803F00F030B60704757
:104AD00000380240003C0240036813F0430FF7B572
:104AE000044640F08A80236813F00C0F44D0894DAF
:104AF000894E00232B60FEF7C9FB074633689B00F5
:104B000000F1CC8021684F0715D5D4E90403D6F80D
:104B100088201B0602F0E04243EA80131343C6F8E4
:104B20008830D6F88C30226A23F4F853013A43EAED
:104B30000223C6F88C300E0714D5774AA369D2F841
:104B4000881020691B0701F0706143EA80130B4352
:104B5000C2F88830D2F88C30616A23F440330B43BA
:104B6000C2F88C3001232B60FEF790FB6A4D06469D
:104B70002B68980040F1998023689A0633D500236A
:104B80000193654B654D1A6C42F080521A641B6CA0
:104B900003F080530193019B2B6843F480732B60D7
:104BA000FEF774FB06462B68D90540F185805A4D07
:104BB0002B6F13F4407340F08680A36A03F44072B5
:104BC000B2F5407F544A40F0A080916823F07040D5
:104BD00021F4F81120F4407001439160116FC3F388
:104BE0000B030B431367206810F010001FBF4C4BE2
:104BF00094F82C201A6000204EE04A4D464E0023C7
:104C00002B60FEF743FB074633681B013ED4216847
:104C1000CF0741BFD4E901231B0743EA8213C6F83B
:104C200084308E0715D53C4AE368D2F88400666864
:104C30001B0600F0E04043EA86130343C2F88430C9
:104C4000D2F88C00E36920F01F00013B0343C2F857
:104C50008C3048060AD5E36862681B0643EA821373
:104C6000A26843EA02732C4AC2F8843001232B6005
:104C7000FEF70CFB284D06462B6819013FF533AFB4
:104C8000FEF704FB801B0228F6D904E0FEF7FEFACB
:104C9000C01B0228B8D9032003B0F0BDFEF7F6FA16
:104CA000C01B02287FF62AAFF5E7FEF7EFFA801B5C
:104CB00002287FF65DAFEEE7FEF7E8FA801B0228D8
:104CC0007FF671AFE7E7A26A02F4407293423FF4C5
:104CD00074AF2B6F144A0121116023F4407300213B
:104CE00011602B672B6FDA077FF567AFFEF7CEFAFF
:104CF00041F2883706462B6F9B073FF55EAFFEF704
:104D0000C5FA801BB842F6D9C5E7916821F4F811BD
:104D100063E700BF70004742003802400070004067
:104D2000E011474268004742400E474238B50D4601
:104D30000446C8B190F82C3003F0FF021BB980F88C
:104D40002D20FCF705FF022384F82C30211D20685C
:104D500000F06CFC62682068294600F09DFC01238D
:104D600084F82C30002038BD0120FCE738B504461B
:104D700090F82C00C0B202280D460DD0022384F812
:104D80002C30206800F0C5FC2B68022B0CBF0523DB
:104D9000012384F82C30002038BD10B5044690F86B
:104DA0002C00C0B2022809D0022384F82C302068DD
:104DB00000F0D4FC012384F82C30002010BDF8B59D
:104DC00004460E4615461F4621688A6836EA0203E5
:104DD00001D000202DE06B1CF7D0FEF757FAC01B66
:104DE0008542F1D823685A6822F0E0025A6062686E
:104DF000B2F5827F0AD1A268B2F5004F02D0B2F5B7
:104E0000806F03D11A6822F040021A60A26AB2F5DC
:104E1000005F07D11A6822F400521A601A6842F43F
:104E200000521A60012384F85130002384F8503076
:104E30000320F8BD38B513464268B2F5827F0446B8
:104E40001FD18268B2F5004F02D0B2F5806F07D152
:104E500025682868B2F5806F20F04000286007D0F0
:104E60000A4680212046FFF7AAFF20B9002038BD5E
:104E70000A460121F6E7636D43F0200363650320D2
:104E8000F5E70A460121EEE773B51346124A134EC1
:104E900015684268B5FBF6F64FF47A757543B2F5BE
:104EA000827F044601950BD10A468021FFF787FFD8
:104EB00078B1636D43F020036365032002B070BDD9
:104EC000019B33B1019B013B019323689B681B0647
:104ED000F6D40020F2E700BF7400002000366E0117
:104EE00010B50446002836D00023836290F8513074
:104EF00003F0FF021BB980F85020FCF7F3FD216896
:104F0000A269022384F851300B6823F040030B6040
:104F1000D4E901300343E068034320690343606937
:104F20000343E0690343206A0343A06A034302F496
:104F3000007003430B60120C636A02F004021A4310
:104F40004A60CB6923F40063CB61002001236065D4
:104F500084F8513010BD0120FCE72DE9F3411E46D5
:104F600090F85030012B04460D46904600F09B808F
:104F7000012380F85030FEF789F9074694F8510074
:104F8000C0B2012840F08D80002D5DD0B8F1000F37
:104F90005AD0032384F851300020A3686065A063D1
:104FA000A4F83680A087E087C4E910002068256354
:104FB000B3F5004F08BF0368A4F8348004BF43F47E
:104FC000804303600368E2685B065EBF036843F0EA
:104FD00040030360B2F5006F63683ED113B1B8F1CE
:104FE000010F07D135F8023BC3602563E38E013B17
:104FF0009BB2E386E38E9BB2A3B93A463146204684
:10500000FFF742FF002849D1A36833B90193236811
:10501000DA6801929B680193019B606D003018BFB4
:10502000012011E022689368980705D5236B33F8B7
:10503000021BD1602363D9E7FEF728F9C01BB042F9
:10504000D8D3711CD6D00320012384F8513000231B
:1050500084F8503002B0BDE8F08113B1B8F1010F0F
:1050600008D12B780373236B01332363E38E013B59
:105070009BB2E386E38E9BB2002BBED023689A6876
:10508000920703D5226B12781A73ECE7FEF7FEF84D
:10509000C01BB042EED3731CECD0D4E72023636571
:1050A000B2E70220D0E70220D4E72DE9F7431E46FD
:1050B00090F850300A9F012B04460D46914600F0AF
:1050C000E280012380F85030FEF7E0F894F8513088
:1050D0006168DBB2012B80460AD0B1F5827F40F0D7
:1050E000D080A068002840F0CC80042B40F0C9801C
:1050F000002D00F0C480B9F1000F00F0C080002E38
:1051000000F0BD8094F85130C4F83890042B1CBFD7
:10511000052384F8513000236365C4E91033236804
:10512000E687E6861A68A687500658BF1A68256380
:1051300058BF42F04002A68658BF1A60E268B2F536
:10514000006F58D109B1012E07D135F8022BDA6072
:10515000E38E2563013B9BB2E3860125E38E9BB280
:10516000ABB9E38F9BB293B9424639462046FFF76D
:105170008BFE002840F08180A368002B32D1236889
:105180000190DA6801929B680193019B2AE02268F2
:10519000936899070DD5E38E9BB253B14DB1236B44
:1051A00033F8021BD1602363E38E013B9BB2E3869D
:1051B00000259368DB070CD5E38F9BB24BB1A36B43
:1051C000D26823F8022BA363E38F013B9BB2E387F2
:1051D0000125FEF75BF8A0EB08008742BED87E1CD5
:1051E000BCD00320012384F85130002384F85030D0
:1051F00003B0BDE8F08309B1012E08D12A781A73F3
:10520000236B01332363E38E013B9BB2E3860125CD
:10521000E38E9BB21BB9E38F9BB2002BA4D0226814
:10522000936898070ED5E38E9BB25BB155B1236BA3
:105230001B781373236B01332363E38E013B9BB213
:10524000E386002522689368D9070DD5E38F9BB2CA
:1052500053B1A36BD2681A70A36B0133A363E38FBE
:10526000013B9BB2E3870125FEF710F8A0EB080095
:105270008742CDD87B1CCBD0B3E7202363650120C8
:10528000B0E70220AEE70220B2E72DE9F3411D4668
:105290004368B3F5827F0446884617460CD183687D
:1052A00053B9042380F85130134600950A46FFF79E
:1052B000FCFE02B0BDE8F08194F85030012B79D0AB
:1052C000012384F85030FDF7E1FF064694F85100C1
:1052D000C0B201286CD1B8F1000F57D0002F55D0C3
:1052E000042384F85130A268A787002363652363F1
:1052F000E787A386E386C4E910332368C4F83880BF
:10530000B2F5004F02BF1A6822F480421A601A6890
:1053100057065EBF1A6842F040021A60E368F3B1B4
:10532000E38F9BB2FBB123689A68D20735D5DA6860
:10533000A36B23F8022BA363E38F013B9BB2E387AC
:10534000EEE723689A68D00718D5A26B1B7B137011
:10535000A36B0133A363E38F013B9BB2E387E38F2E
:105360009BB2002BEDD1324629462046FFF762FD65
:10537000D8B9606D003018BF012007E0FDF786FF47
:10538000801BA842EBD3691CE9D00320012384F8D9
:105390005130002384F850308BE7FDF777FF801BF6
:1053A000A842BDD36B1CBBD0EFE720236365E0E7C9
:1053B0000220EBE702207CE770470368DA6842F0DE
:1053C0000102DA609A6802F00702062A1EBF1A6814
:1053D00042F001021A600020704770477047704722
:1053E000704703681A69910710B504460ED5DA684C
:1053F00092070BD56FF002021A619B6901229B078D
:10540000027777D0FFF7EAFF0023237723681A6932
:10541000500710D5DA6851070DD56FF004021A61F4
:105420009B69022213F4407F2277204668D0FFF761
:10543000D5FF0023237723681A6912070FD5DA688E
:1054400010070CD56FF008021A61DB690422990776
:10545000227720465AD0FFF7C1FF00232377236825
:105460001A69D20610D5DA68D0060DD56FF0100291
:105470001A61DB69082213F4407F227720464BD063
:10548000FFF7ACFF0023237723681A69D10708D5FB
:10549000DA68D20705D56FF001021A612046FCF7E1
:1054A00089F923681A69100608D5DA68110605D546
:1054B0006FF080021A61204600F0B7F823681A697D
:1054C000520608D5DA68500605D56FF040021A6119
:1054D0002046FFF785FF23681A69910622D5DA680E
:1054E00092061FD56FF0200220461A61BDE81040D9
:1054F00000F09AB8FFF771FF2046FFF770FF83E7CF
:10550000FFF76BFF2046FFF76AFF92E7FFF765FFA3
:105510002046FFF764FFA0E7FFF75FFF2046FFF795
:105520005EFFAFE710BD0000304A0368904212D022
:10553000B0F1804F0FD0A2F57C4290420BD002F523
:105540008062904207D002F58062904203D002F55B
:105550007842904219D14A6823F070031343234ADA
:10556000904229D0B0F1804F26D0A2F57C429042E3
:1055700022D002F5806290421ED002F580629042F5
:105580001AD002F57842904216D0194A904213D0B0
:1055900002F5806290420FD002F5806290420BD0FB
:1055A000A2F59832904207D002F58062904203D073
:1055B00002F58062904203D1CA6823F4407313431A
:1055C0004A6923F08003134303608B68C3620B684E
:1055D0008362064B984203D003F58063984201D161
:1055E0000B69036301234361704700BF0000014062
:1055F0000040014010B50446A0B190F83D3003F0E2
:10560000FF021BB980F83C20FFF7D6FE022384F886
:105610003D302068211DFFF787FF012384F83D30CE
:10562000002010BD0120FCE7704770472DE9F041D4
:105630004A6AD1E90743D1E90158D1E903ECD1E93C
:1056400005760968012943EA0403124904680FD06A
:105650001A432A4342EA080343EA0E0343EA0C03CF
:105660003B43214033430B4303600020BDE8F081FE
:1056700013434268114045EA080242EA0E0242EA38
:105680000C023A4324F4F844324323430A430360B0
:105690004260EAE70080FFFFCB68F0B50C688E68D7
:1056A0000D695F1E4B6904F1FF3C4C688969013B41
:1056B0001B05013C013E013D0139012A4FEA04145A
:1056C0004FEA06264FEA05454FEA016143EA0733F0
:1056D0000CD043EA0C032343826833432B4302F08C
:1056E00070420B43134383600020F0BD876827F4AA
:1056F000700727F4704744EA06023B4342EA0C0273
:10570000C76883602A4307F070470A433A43C26080
:10571000EAE773B5002301931546D1E9003213433C
:10572000CA6843EA42238A68013A43EA4213019372
:10573000019B03610446FDF7A9FD0646A06910F030
:10574000200003D06B1CF9D015B9032002B070BD46
:10575000FDF79CFD801BA842F0D9F6E7436943EAB8
:105760004101416100207047EFF3058313B16FF0F1
:1057700005007047EFF31082074B12B9EFF3118267
:1057800012B11A68022AF2D0186810B901221A6000
:1057900070474FF0FF3070475C14002008B5EFF3FE
:1057A000058313B16FF0050008BDEFF310820A4BBB
:1057B00012B9EFF3118212B11A68022AF2D01A68F4
:1057C000012A05D102221A6001F0B2FB0020EBE7AA
:1057D0004FF0FF30E8E700BF5C140020F0B587B061
:1057E000144600220B460592EFF3058232BBEFF31D
:1057F000108212B9EFF311821AB1224A1268022AFA
:105800001CD0D8B1002C36D0A5692168002D08BF66
:1058100018256A1E372A2F4631D86268D2072ED43F
:10582000666976B1B208D4E902CEBCF1000F0AD0A5
:10583000BEF15F0F02D9246904B1AEB9059807B073
:10584000F0BD8022EFE7BEF1000FF7D12469002CF4
:10585000F4D105ACCDE9007492B201F03BFB012814
:105860001CBF00230593E9E7CDE9014C009501F049
:10587000F9FA0590E2E7182780222146E9E700209F
:10588000DDE700BF5C14002073B50E461546EFF34C
:1058900005831BB10024204602B070BDEFF31083D6
:1058A00013B9EFF311831BB1214B1B68022BF1D00D
:1058B0000028EFD0B042EDD3EDB1D5E90232C3B14B
:1058C0004F2AE7D9012826D103220092002211464F
:1058D00000F030FD04460028DCD0CEB100231A468B
:1058E000194600F0DDFD012812D0204601F018F91C
:1058F000D0E7002ACED1012804D10322002100F0F4
:1059000067FDE7E7314600F0ACFD04460028C1D052
:1059100045B9294607E01A46314600F080FD0446A5
:105920000028B7D02968204601F0D4F8B3E700BFBB
:105930005C14002013B50C4618B96FF0030002B0D8
:1059400010BDEFF305836BB1002CF6D102AA2146FE
:1059500042F8044D01F06EF8012813D1019BA3B960
:105960000020ECE7EFF3108313B9EFF311831BB1C1
:105970000C4B1B68022BE7D0214600F099FF012851
:10598000EED05CB96FF00200D9E7074B4FF08052C0
:105990001A60BFF34F8FBFF36F8FE1E76FF0010025
:1059A000CDE700BF5C14002004ED00E013B568B340
:1059B000EFF3058353B102A9002441F8044D00F030
:1059C00082FE012814D06FF0020014E0EFF3108380
:1059D00013B9EFF311831BB10E4B1B68022BEAD0F6
:1059E00000231A46194600F05BFD012802D0EAE7C1
:1059F000019B13B9002002B010BD074B4FF080523D
:105A00001A60BFF34F8FBFF36F8FF3E76FF00300A0
:105A1000F1E700BF5C14002004ED00E073B514460C
:105A2000EFF305831BB10025284602B070BDEFF3EC
:105A3000108313B9EFF311831BB11A4B1B68022BB0
:105A4000F1D00028EFD00029EDD004B3D4E9023220
:105A5000ABB14F2AE7D92269002AE4D0666901FB7D
:105A600000F5AE42DFD30025009500F063FC05464B
:105A70000028D8D02168284601F02CF8D4E7002A65
:105A8000D1D12369002BCED16369002BCBD1002269
:105A900000F09EFC05460028C5D0002CEAD1214626
:105AA000E9E700BF5C14002013B51C46EFF3058343
:105AB00023B1D8B96FF0030002B010BDEFF310832B
:105AC00013B9EFF311831BB1164B1B68022BF0D0F7
:105AD0000028EFD00029EDD00023224600F0E0FCA2
