:100000000C9434000C9449000C9449000C94490061
:100010000C9449000C9449000C9449000C9449003C
:100020000C9449000C9449000C9449000C9449002C
:100030000C9449000C9449000C9449000C9449001C
:100040000C9449000C9449000C9449000C9449000C
:100050000C9449000C9449000C9449000C944900FC
:100060000C9449000C94490011241FBECFEFD8E036
:10007000DEBFCDBF11E0A0E0B1E0EAE8F1E002C0F0
:1000800005900D92AC30B107D9F70E9485000C9411
:10009000C3000C94000083E390E09093C50080932C
:1000A000C40088E18093C10086E08093C200089577
:1000B000E0ECF0E080818823ECF78091C6000895A1
:1000C000EF92FF920F931F93CF93DF93E82EF92EB9
:1000D000C82FD92F0E94580088838D3011F41882C0
:1000E00003C021968111F6CF8E2D9F2DDF91CF91E8
:1000F0001F910F91FF90EF9008958093C600E0EC60
:10010000F0E0808185FFFDCF0895CF93DF93CDB7D9
:10011000DEB7CF56D1090FB6F894DEBF0FBECDBF04
:100120008BE0E0E0F1E0DE01AB59BF4F01900D92B2
:100130008A95E1F781E087B918B80E944B00CE019B
:1001400001960E946000A6968FADA697882369F05D
:1001500005E610E00C0F1D1F0F5F1F4F0E947D0072
:10016000F80181918F018111F9CF8981882339F3B9
:100170008E010E5F1F4F0E947D00F80181918F015B
:0A0180008111F9CFDCCFF894FFCF16
:0C018A0052656365697665643A200000E8
:00000001FF
