:100000000C9434000C9446000C9446000C9446006A
:100010000C9446000C9446000C9446000C94460048
:100020000C9446000C9446000C9446000C94460038
:100030000C9446000C9446000C9455000C94460019
:100040000C9446000C9446000C9446000C94460018
:100050000C9446000C9446000C9446000C94460008
:100060000C9446000C94460011241FBECFEFD8E03C
:10007000DEBFCDBF21E0A0E0B1E001C01D92A23003
:10008000B207E1F70E9448000C9477000C9400003E
:1000900082E084BD95E095BD94E697BD80936E00A7
:1000A00078948FEF84B915B8FFCF1F920F920FB6D7
:1000B0000F9211248F939F938091000190910101E1
:1000C00001968E3491052CF49093010180930001E8
:1000D00007C0109201011092000185B1809585B989
:1000E0009F918F910F900FBE0F901F901895F894CD
:0200F000FFCF40
:00000001FF
