:060000000A128A11F82F1C
:100CBE0083160313111483128C1D622E8C110800DF
:100CCE0083160313111583128C1D6A2E8C110800C6
:100CDE00F00070088312031393008C1D742E8C1178
:100CEE000800831203138C1E782E1A08F000700869
:100CFE00F10071080800F0007008831203139900C8
:100D0E008316031398180800872E243083160313B6
:100D1E0098009030831203139800673083160313E4
:100D2E00990007138717080083160313941783126D
:100D3E000313941694111415941414103030831652
:100D4E0003139300871507160800831203138C1DD7
:100D5E000800141283160313941A08008312031347
:100D6E001308F0007008D60083160313141CBB2E54
:100D7E00831203131308F0007008D70014168C1199
:100D8E005708080083120313941694151411941027
:100D9E00141083160313910194178312031323085F
:100DAE00F3002208F2002108F1002008F0000030C4
:100DBE00F7000030F6000F30F500A030F4000A12F4
:100DCE008A119A277008FF3E831603139300871526
:100DDE0007160800F4007408840083130008031932
:100DEE0008000A128A115F260A128A1130300A127E
:100DFE008A116F260A128A11740884008313000860
:100E0E000A128A116F260A128A110A128A1167268D
:100E1E000A128A110130F1007108F4070330F30051
:100E2E000830F2007730F100F10B1B2FF20B1B2F65
:100E3E00F30B1B2FF22E8316031306140A128A11BC
:100E4E008C260A128A113E2F0030A3000030A20019
:100E5E000030A1006430A0000A128A11C9260A12BD
:100E6E008A110A128A115A270A128A11382F8312EE
:100E7E00031306182B2F06183E2F0A128A119B26D3
:100E8E000A128A110A128A11AC260A128A118312C8
:100E9E000313D4005408D50055080A128A1182266D
:100EAE000A128A11492F83120313D201D301530858
:100EBE00803AFF0080307F02031D672F32305202CE
:100ECE000318952F0A128A1178260A128A11F50034
:100EDE00831203135208203E84007508831380008A
:100EEE005208203E840020300006031D842F520835
:100EFE00013E203E84008001952F0130D207031859
:100F0E00D30A0030D3075308803AFF0080307F02A7
:100F1E00031D932F32305202031C692F20300A1208
:100F2E008A11F12608000030FC000030FB00003072
:100F3E00FA000030F900730872047104700403198A
:100F4E00EF2FFD01FD0AF31BBA2F0130F80003103D
:100F5E00F00DF10DF20DF30DF80BAE2F0130F80080
:100F6E007808FD07AA2F0130F8000310F90DFA0DCD
:100F7E00FB0DFC0DF80BBC2F73087702031DD12F50
:100F8E0072087602031DD12F71087502031DD12F31
:100F9E0070087402031CE22F7008F4027108031C1F
:100FAE00710FF5027208031C720FF6027308031C10
:100FBE00730FF702791401300310F30CF20CF10CDD
:100FCE00F00CFF3E031DE32F0130FD02031DBA2F6F
:100FDE007C08F3007B08F2007A08F1007908F00033
:100FEE00080083120313D601D70183010A128A1156
:020FFE00222FA0
:00000001FF
