:020000040000FA
:100000000A128A11F32F831203131F150800F2003E
:10001000172872088400831300080A168A155223D1
:100020000A128A110130F1007108F20717287208CC
:10003000840083130008031D1E281F280928202878
:1000400008007008F8007108F9007208FA0003103F
:10005000790D7A0DFB007B0883120313A500250898
:10006000031D332834283E280030F3000030F2000E
:100070000030F1000030F000012901297408F80077
:100080007508F9007608FA000310790D7A0DFB0067
:100090007B08A4002408031D4E284F28592800304F
:1000A000F3000030F2000030F1000030F0000129D0
:1000B0000129F117FF30F005FF30F1050030F2059E
:1000C000F517FF30F405FF30F5050030F605003078
:1000D000A3000030A2000030A1000030A0007F305B
:1000E000A50298302407F8007808A5021830F80017
:1000F0007808A4007B280130F8000310A00DA10DA2
:10010000A20DA30DF80B7D2876087202031D8E2820
:1001100075087102031D8E2874087002031C912853
:1001200092289E287408F0027508031C750FF102CE
:100130007608031C760AF20220149E280130031070
:10014000F00DF10DF20DFF3E031D9F280130A402BA
:10015000031DAB28AC287B28A51FAF28B028D528C5
:100160002508803A973E0318B628B728C2280030E1
:10017000F3000030F2000030F1000030F0000129FF
:100180000129C22801300310A30CA20CA10CA00C61
:10019000FF3E031DC3280130F8007808A507031DA2
:1001A000D228D328C228F828F82818302502031CA2
:1001B000DA28DB28F1280030F3000030F2000030AC
:1001C000F1000030F00001290129F1280130F80088
:1001D0000310A00DA10DA20DA30DF80BE82801300E
:1001E000A5022508031DF528F628E628F828F82892
:1001F0002308F3002208F2002108F1002008F00093
:10020000012908007008F8007108F9007208FA0066
:100210007308FB0003107A0D7B0DFC007C08831231
:100220000313A5002508031D1629172921290030CD
:10023000F3000030F2000030F1000030F000F3294C
:10024000F3297408F8007508F9007608FA007708B1
:10025000FB0003107A0D7B0DFC007C08A400240831
:10026000031D332934293E290030F3000030F20009
:100270000030F1000030F000F329F329F217FF30CD
:10028000F005FF30F105FF30F2050030F305F617F9
:10029000FF30F405FF30F505FF30F6050030F705B7
:1002A0000030A3000030A2000030A1000030A00008
:1002B0007F30A502A0302407F8007808A50220307E
:1002C000F8007808A40064290130F8000310A00D9C
:1002D000A10DA20DA30DF80B662977087302031D6B
:1002E0007B2976087202031D7B2975087102031DA4
:1002F0007B2974087002031C7E297F298F297408CA
:10030000F0027508031C750FF1027608031C760FC6
:10031000F2027708031C770FF30220148F290130B3
:10032000F8000310F00DF10DF20DF30DF80B91290B
:100330000130A402031D9D299E296429A51FA1291E
:10034000A229C7292508803A9F3E0318A829A92970
:10035000B4290030F3000030F2000030F10000302A
:10036000F000F329F329B42901300310A30CA20CE7
:10037000A10CA00CFF3E031DB5290130F800780840
:10038000A507031DC429C529B429EA29EA29203073
:100390002502031CCC29CD29E3290030F3000030CD
:1003A000F2000030F1000030F000F329F329E329D6
:1003B0000130F8000310A00DA10DA20DA30DF80B44
:1003C000DA290130A5022508031DE729E829D829E3
:1003D000EA29EA292308F3002208F2002108F100A3
:1003E0002008F000F329080083160313C900AD307C
:1003F000B1003108BA00D92F25304E060319012A61
:10040000022A0E2A4E08B1004908840031088313DD
:1004100080000130B1003108C907D92FBB01BC01F0
:10042000162AED2F3C15302AD92F302A0130AC077F
:10043000FF302C0784000A168A1500200A128A1140
:10044000CE00B100B2013208003A0319282AD92F90
:100450003108003A0319ED2F663A0319122AD92FF1
:1004600000303B05B10007303C05B20031083204D2
:1004700003193B2A3C2AC02F0630BD000030BE00C5
:100480003A08840083130008CA00840A0008CB00DD
:10049000840A0008CC00840A0008CD000430B100B2
:1004A0003108BA074D08F3004C08F2004B08F10080
:1004B0004A08F0000030F7000030F6000030F50088
:1004C0000030F4000A128A1558200A128A11031803
:1004D0006A2A6B2A892A831603134D08F3004C08F5
:1004E000F2004B08F1004A08F0000A168A1538237A
:1004F0000A128A11730883160313CD007208CC0008
:100500007108CB007008CA000330BB040030BC0483
:10051000892A83160313C301C4014D08F3004C0854
:10052000F2004B08F1004A08F0000030F7000030FC
:10053000F6000030F5000030F4000A168A153E245B
:100540000A128A110318A52AA62AA22B83160313BE
:100550004A08B1004B08B2004C08B3004D08B40083
:100560000310330D340D823EC300FF3003180030FA
:10057000C400FF30C3070318C40AFF30C4070330A8
:10058000F0000030F1004408F3004308F2000A16BE
:100590008A1560230A128A11710883160313C40096
:1005A0007008C3000A30F7000030F8004408FA0071
:1005B0004308F9000A168A15A9250A128A11780833
:1005C00083160313C4007708C300C41FE82AE92A6E
:1005D000F02AFF30C3070318C40AFF30C407F02A0B
:1005E0004303FF3A0A168A1191240A128A118312D0
:1005F00003134A0883160313C80083120313490820
:1006000083160313C70083120313480883160313CA
:10061000C60083120313470883160313C5004D0851
:1006200083120313B000831603134C0883120313C1
:10063000AF00831603134B0883120313AE00831617
:1006400003134A0883120313AD00831603134808EB
:1006500083120313B4008316031347088312031392
:10066000B30083160313460883120313B2008316E4
:100670000313450883120313B1000A128A158B2451
:100680000A128A1183120313300883160313C80059
:10069000831203132F0883160313C7008312031357
:1006A0002E0883160313C600831203132D08831626
:1006B0000313C5004808F3004708F2004608F1009C
:1006C0004508F0003F30F7008030F6000030F500BC
:1006D0000030F4000A128A1558200A128A110318F1
:1006E000722B732B7C2BFF3083160313C307031865
:1006F000C40AFF30C407A22B831603134808F30073
:100700004708F2004608F1004508F0004130F700C4
:100710002030F6000030F5000030F4000A128A158F
:1007200058200A128A11031C962B972BA22B0130FA
:1007300083160313C3070318C40A0030C407A22B8F
:10074000A22BA22B831603133E08803AFF008030B1
:100750007F02031DAD2B0D303D020318B02BB12BD2
:10076000F92B831603133D080A168A117E220A12FA
:100770008A11831203134A08DE004908DD00480885
:10078000DC004708DB00831603134D0883120313B4
:10079000E200831603134C0883120313E10083164F
:1007A00003134B0883120313E000831603134A0854
:1007B00083120313DF000A128A151B210A128A1101
:1007C000831203135E0883160313CD0083120313F1
:1007D0005D0883160313CC00831203135C08831691
:1007E0000313CB00831203135B0883160313CA00A1
:1007F000F92B831603134408803AFF0080307F02F0
:10080000031D042C0A3043020318072C082C5A2C11
:10081000831603134D08F3004C08F2004B08F10057
:100820004A08F0000030F7000030F6000030F50014
:100830000030F4000A168A153E240A128A110318A1
:10084000222C232CEE2C831603134D088312031342
:10085000DD00831603134C0883120313DC00831698
:1008600003134B0883120313DB00831603134A0898
:1008700083120313DA000A168A15A2260A128A11B5
:10088000831203135D085C045B045A04031D492CA6
:100890004A2CEE2C831603134408803AFF00803064
:1008A0007F02031D552C02304302031C582C592C87
:1008B000EE2C5A2C831603134808F3004708F20065
:1008C0004608F1004508F0004030F7008930F60096
:1008D0007030F5005F30F4000A128A1558200A12B1
:1008E0008A110318742C752C7E2CF7308316031391
:1008F000C3070318C40AFF30C407872CF8308316D7
:100900000313C3070318C40AFF30C407872C430826
:100910000A168A1191240A128A11831203134A08B3
:1009200083160313C80083120313490883160313A5
:10093000C70083120313480883160313C6008312EB
:100940000313470883160313C5004D08F3004C0832
:10095000F2004B08F1004A08F0004808F700470889
:10096000F6004608F5004508F4000A128A11022133
:100970000A128A11730883160313C2007208C10099
:100980007108C0007008BF00E52C4D08F3004C084A
:10099000F2004B08F1004A08F0004808F700470849
:1009A000F6004608F5004508F4000A128A112120D5
:1009B0000A128A11730883160313C2007208C10059
:1009C0007108C0007008BF00E52C0030CD00003079
:1009D000CC000030CB000030CA00552D8316031325
:1009E0004D0883120313DD00831603134C08831292
:1009F0000313DC00831603134B0883120313DB007D
:100A0000831603134A0883120313DA000A168A15A1
:100A1000A2260A128A11831203135D088316031398
:100A2000C200831203135C0883160313C1008312F0
:100A300003135B0883160313C000831203135A08C1
:100A400083160313BF004208F3004108F200400878
:100A5000F1003F08F00000300A168A153E270A12FE
:100A60008A11730883160313A7007208A600710881
:100A7000A5007008A4004D08AB004C08AA004B0864
:100A8000A9004A08A8000A128A1507200A128A112A
:100A9000831603132708CD002608CC002508CB00B9
:100AA0002408CA00C301C401552DCE01CE0A0A3064
:100AB0004E06031D5C2D5D2D5F2DA22DA22D4E082F
:100AC000B10001300310B10DFF3E031D622D031074
:100AD000310D693E84000A168A1500200A128A1117
:100AE000B2000A168A1500200A128A11B3000A16EB
:100AF0008A1500200A128A11B4000A168A150020ED
:100B00000A128A11B50035084202031D912D3408DE
:100B10004102031D912D33084002031D912D32081F
:100B20003F020318942D952D972DA22DA22D013053
:100B3000B1003108CE070A304E06031DA02DA12DAD
:100B40005F2DA22D03303B05B10000303C05B20003
:100B5000310832040319AD2DAE2D212E2D30B100F8
:100B6000490884003108831380000130B100310846
:100B7000C907212E212E4E08B10001300310B10DFE
:100B8000FF3E031DBE2D0310310D693E84000A1681
:100B90008A1500200A128A11F0000A168A15002010
:100BA0000A128A11F1000A168A1500200A128A1107
:100BB000F2000A168A1500200A128A11F300420870
:100BC000F7004108F6004008F5003F08F4000A1657
:100BD0008A1102200A128A11730883160313C800AF
:100BE0007208C7007108C6007008C5000030F30025
:100BF0000030F2000030F1000A30F0004808F70041
:100C00004708F6004608F5004508F4000A168A155C
:100C10008E240A128A11730883160313C8007208FF
:100C2000C7007108C6007008C5004508303EB10015
:100C3000490884003108831380000130B100310875
:100C4000C9070130CE024E0A031D272E282EBB2DC8
:100C50003E2E3E2E303083160313B1004908840027
:100C60003108831380000130B1003108C907FF301B
:100C7000C3070318C40AFF30C4073E2E4408803A55
:100C8000FF0080307F02031D472E0130430203180E
:100C90004A2E4B2E2A2E4C2E831603133E08803AE2
:100CA000FF0080307F02031D572E09303D02031CD8
:100CB0005A2E5B2E622E083083160313B1003108C2
:100CC000CE00682E831603133D08B1003108CE0014
:100CD0004E08B100B2013108BD023208031CBE0348
:100CE000BE024E080319752E762E822E2E30B100CC
:100CF000490884003108831380000130B1003108B5
:100D0000C907822E4E080A168A1191240A128A11E6
:100D1000831203134A0883160313B90083120313C3
:100D2000490883160313B800831203134808831677
:100D30000313B70083120313470883160313B60087
:100D4000390883120313B40083160313380883127F
:100D50000313B30083160313370883120313B2007F
:100D600083160313360883120313B100831603138B
:100D70004D0883120313B000831603134C0883122B
:100D80000313AF00831603134B0883120313AE0043
:100D9000831603134A0883120313AD000A128A153F
:100DA0008B240A128A11831203133008DD002F08E6
:100DB000DC002E08DB002D08DA000A168A15A226B0
:100DC0000A128A11831203135D0883160313C200EB
:100DD000831203135C0883160313C10083120313E9
:100DE0005B0883160313C000831203135A0883168B
:100DF0000313BF009D2F4E08B10001300310B10D49
:100E0000FF3E031DFE2E0310310D693E84000A16BD
:100E10008A1500200A128A11F0000A168A1500208D
:100E20000A128A11F1000A168A1500200A128A1184
:100E3000F2000A168A1500200A128A11F3004208ED
:100E4000F7004108F6004008F5003F08F4000A16D4
:100E50008A1102200A128A11730883160313C8002C
:100E60007208C7007108C6007008C5000030F300A2
:100E70000030F2000030F1000A30F0004808F700BE
:100E80004708F6004608F5004508F4000A168A15DA
:100E90008E240A128A11730883160313C80072087D
:100EA000C7007108C6007008C5004508303EB10093
:100EB000490884003108831380000130B1003108F3
:100EC000C9074E08B10001300310B10DFF3E031DEC
:100ED000642F0310310D693E84000A168A15002024
:100EE0000A128A11F0000A168A1500200A128A11C5
:100EF000F1000A168A1500200A128A11F2000A1659
:100F00008A1500200A128A11F3004208F7004108EE
:100F1000F6004008F5003F08F4000A168A158E24F2
:100F20000A128A11730883160313C2007208C100E3
:100F30007108C0007008BF009D2F0130CE024E0A1C
:100F4000031DA32FA42FFB2EB82FB82F3030B100D4
:100F5000490884003108831380000130B100310852
:100F6000C907FF30BD070318BE0AFF30BE07B82F00
:100F70003D083E04031DBD2FBE2FA62FD92FD92F0C
:100F800003303B05B10000303C05B20031083204AB
:100F90000319CB2FCC2FD92F2D30B1004908840055
:100FA0003108831380000130B1003108C907D92FFF
:100FB000D92F0130AC07FF302C0784000A168A15A0
:100FC00000200A128A11B1003108CE004E08031D1C
:100FD000EA2FEB2FFC29ED2FED2F49088400831316
:100FE0008001F22F08008313D2308400E6300A1605
:100FF0008A1530230A128A1183010A168A15E92CF0
:10100000831203131F14831603139F1708008030E5
:1010100083160313A7062B0883120313DE0083161F
:1010200003132A0883120313DD0083160313290810
:1010300083120313DC00831603132808831203139F
:10104000DB0083160313270883120313E2008316C1
:101050000313260883120313E100831603132508E4
:1010600083120313E000831603132408831203136F
:10107000DF000A128A151B210A128A158312031334
:101080005E0883160313A700831203135D088316FB
:101090000313A600831203135C0883160313A50031
:1010A000831203135B0883160313A4005728080058
:1010B0000030700583120313A00000307105A100F9
:1010C00080307205A2007F307305A300230822043C
:1010D00021042004031D6D286E2876280030F300BB
:1010E0000030F2000030F1000030F00000307405F4
:1010F000A00000307505A10080307605A2007F3089
:101100007705A3002308220421042004031D892855
:101110008A2893280030F7000030F6000030F500F0
:101120000030F4009328F31F96289728C928003030
:10113000A0000030A1000030A2008030A3007009A0
:10114000A4007109A5007209A6007309A700A40AEA
:101150000319A50A0319A60A0319A70A2408A00758
:1011600025080318250FB528B628A1072608031857
:10117000260FBB28BC28A20727080318270AA307A5
:101180002308F3002208F2002108F1002008F000F3
:10119000C928F71FCC28CD28FF280030A000003038
:1011A000A1000030A2008030A3007409A4007509DA
:1011B000A5007609A6007709A700A40A0319A50AC5
:1011C0000319A60A0319A70A2408A007250803186B
:1011D000250FEB28EC28A10726080318260FF12875
:1011E000F228A20727080318270AA3072308F700F5
:1011F0002208F6002108F5002008F400FF288030BE
:10120000F3068030F70677087302031D112976086C
:101210007202031D112975087102031D112974083A
:101220007002031814291529172903101A29031409
:101230001A291A290800831203135E088039E30073
:10124000630883160313A000831203135E08E300F0
:101250006307E400640883160313A20083120313D8
:10126000DD1F332934293829831603132214382922
:1012700083160313220803193E293F295329220A02
:10128000031D432944294F29003083120313DE0034
:101290000030DD000030DC000030DB004F2983121D
:1012A000DD17DE015D2900308312DE000030DD0035
:1012B0000030DC000030DB005D2962088039E3008B
:1012C000630883160313A100210820060319692966
:1012D0006A296C2920176C29831203136208E30022
:1012E0006307E400640883160313A1008312031349
:1012F000E11F7B297C29802983160313211480296F
:101300008316031321080319862987299B29210A9B
:10131000031D8B298C299729003083120313E200C7
:101320000030E1000030E0000030DF009729831238
:10133000E117E201A42900308312E2000030E1004D
:101340000030E0000030DF00831603132208210282
:101350000318AB29AC29242A201FAF29B029B929A9
:10136000803083120313E300630883160313A0067F
:10137000B929220883120313E300630883160313B9
:10138000A300210883120313E300630883160313E9
:10139000A200230883120313E300630883160313D8
:1013A000A100831203135B08E30063088316031391
:1013B000A300831203135F08E3006308DB008316B6
:1013C0000313230883120313E3006308DF005C08A0
:1013D000E300630883160313A3008312031360085A
:1013E000E3006308DC00831603132308831203134E
:1013F000E3006308E0005D08E3006308831603135D
:10140000A300831203136108E3006308DD00831661
:101410000313230883120313E3006308E1005E084B
:10142000E300630883160313A30083120313620807
:10143000E3006308DE0083160313230883120313FB
:10144000E3006308E200242A83160313A3012208A1
:1014500083120313E300E401E309E409E30A031937
:10146000E40A831603132108831203136307E500BC
:1014700064080318640AE6006608803AFF008030BA
:101480007F02031D452A1A306502031C482A492A97
:101490009F2A831203135E085D045C045B04031D32
:1014A000522A542A0130552A0030E300630883167B
:1014B0000313A300003083120313DE000030DD00AD
:1014C0000030DC000030DB00831603132108831298
:1014D0000313E300630883160313A200A82A9F2ABC
:1014E000231C732A742A812A230883120313E3001E
:1014F0000310630C0138E400640883160313A3008F
:10150000842A0310A30C842A831203135B1C892AE8
:101510008A2A8E2A83160313A3178E2A0130831278
:10152000E3005E0DDE0CDD0CDC0CDB0CE30B912A22
:101530000130E300630883160313A2079F2A831672
:10154000031321082202031CA62AA72A702AA82A0C
:10155000201BAB2AAC2A0B2B2208031DB02AB12A70
:10156000BD2A003083120313DE000030DD0000309E
:10157000DC000030DB008A2C8A2C83125F08DB073A
:10158000600803110318013E0319C72ADC0761082C
:1015900003110318013E0319CE2ADD076208031167
:1015A0000318013E0319D52ADE075E1CD82AD92A62
:1015B000E62B83160313231CDE2ADF2AEC2A2308DA
:1015C00083120313E3000310630C0138E400640882
:1015D00083160313A300EF2A0310A30CEF2A831230
:1015E00003135B1CF42AF52AF92A83160313A317A5
:1015F000F92A01308312E3005E0DDE0CDD0CDC0CF9
:10160000DB0CE30BFC2A0130E300630883160313B1
:10161000A207E62BE62B831203135E08803AFF0035
:101620006208803A7F02031D1F2B61085D02031DC3
:101630001F2B60085C02031D1F2B5F085B02031851
:10164000222B232B8D2BFF30E300FF30E400FF30F3
:10165000E500FF30E6005F08E7006008E800610889
:10166000E9006208EA005B09EB005C09EC005D0937
:10167000ED005E09EE00EB0A0319EC0A0319ED0A0E
:101680000319EE0A6B08E7076C0803186C0F492B67
:101690004A2BE8076D0803186D0F4F2B502BE907F5
:1016A0006E0803186E0AEA076708E307680803185C
:1016B000680F5B2B5C2BE40769080318690F612B2B
:1016C000622BE5076A0803186A0AE6076608DE0067
:1016D0006508DD006408DC006308DB008030E3009F
:1016E000630883160313A006A309A30A2308031D96
:1016F0007A2B7B2B9B2B013083120313DB070030EB
:1017000003180130DC07003003180130DD0700301A
:1017100003180130DE079B2B9B2B5F08DB02600860
:10172000031C600FDC026108031C610FDD0262080C
:10173000031C620FDE0283125E085D045C045B041E
:10174000031DA32BA42BDF2B831603132308031DD8
:10175000AA2BAB2BDF2B003083120313DE000030EB
:10176000DD000030DC000030DB008A2C8A2CDF2B0F
:101770000130E3000310DB0DDC0DDD0DDE0DE30BAE
:10178000BA2B83160313A31FC62BC72BCA2B831296
:1017900003135B1483160313231CCF2BD02BD32BE3
:1017A0000314A30DD62B0310A30DD62B2208031967
:1017B000DA2BDB2BDF2B0130A202DF2BDF2B831296
:1017C000DD1FE32BE42BB82BE62BE62B831603134C
:1017D000A101A31FEC2BED2B032C23087F39031948
:1017E000F22BF32BF62BA101A10A032C8312031376
:1017F0005B1CFB2BFC2B032C83160313A101A10AFA
:10180000032C032C032C8316031321080319092C22
:101810000A2C482C013083120313DB070030031815
:101820000130DC07003003180130DD0700300318F9
:101830000130DE075E1C1D2C1E2C482C5B08E300CB
:101840005C08E4005D08E5005E08E6000130E700A2
:10185000660DE60CE50CE40CE30CE70B282C66089F
:10186000DE006508DD006408DC006308DB00831629
:101870000313220A03193D2C3E2C482C01308312FD
:101880000313E300630883160313A207482C482CB4
:1018900083160313220A03194E2C4F2C552C2208B1
:1018A000031D532C542C692C552C00308312031328
:1018B000DE000030DD000030DC000030DB0083168D
:1018C00003132208031D652C662C692CA001692CCA
:1018D000692C221C6C2C6D2C712C83120313DD17C8
:1018E000762C7F308312E3006308DD058316031333
:1018F000220883120313E3000310630CE40064085E
:10190000DE0083160313A01F862C872C8A2C8312DB
:101910000313DE1708008312031330088039B50063
:101920003508BA003008B5003507B6003608C000E3
:10193000AF1F9B2C9C2C9E2C40149E2C40080319FE
:10194000A22CA32CB32C400A031DA72CA82CB12C2D
:101950000030B0000030AF000030AE000030AD000D
:10196000B12CAF17BC2C0030B0000030AF000030FD
:10197000AE000030AD00BC2C34088039B50035080D
:10198000BA063408B5003507B6003608BF00B31FE5
:10199000CA2CCB2CCD2C3F14CD2C3F080319D12CB5
:1019A000D22CE22C3F0A031DD62CD72CE02C003081
:1019B000B4000030B3000030B2000030B100E02CC1
:1019C000B317EB2C0030B4000030B3000030B2008D
:1019D0000030B100EB2C3F080319EF2CF02CF62C53
:1019E0004008031DF42CF52C002DF62C0030B0001F
:1019F0000030AF000030AE000030AD00FF2FFF2FF1
:101A00002D08B5003508F00033080A168A1588231A
:101A10000A128A15710883120313C6007008C500E4
:101A20004508B500B601B701B8013808BE0037084F
:101A3000BD003608BC003508BB004608B500B6013D
:101A4000B701B8013808C4003708C3003608C2001F
:101A50003508C1002E08B5003508F00032080A1616
:101A60008A1588230A128A15710883120313C60087
:101A70007008C5004508B500B601B701B8013508C2
:101A8000BB07360803110318013E0319482DBC0794
:101A9000370803110318013E03194F2DBD073808FD
:101AA00003110318013E0319562DBE074608B50061
:101AB000B601B701B8013508C1073608031103188C
:101AC000013E0319642DC207370803110318013EB4
:101AD00003196B2DC307380803110318013E0319BE
:101AE000722DC4072F08B5003508F00031080A161A
:101AF0008A1588230A128A15710883120313C600F7
:101B00007008C5004508B500B601B701B801350831
:101B1000BB07360803110318013E0319902DBC07BB
:101B2000370803110318013E0319972DBD07380824
:101B300003110318013E03199E2DBE074608B50088
:101B4000B601B701B8013508C107360803110318FB
:101B5000013E0319AC2DC207370803110318013EDB
:101B60000319B32DC307380803110318013E0319E5
:101B7000BA2DC4070830B5000310BB0DBC0DBD0D58
:101B8000BE0DB50BBC2D2E08B5003508F000310890
:101B90000A168A1588230A128A15710883120313FC
:101BA000C6007008C5004508B5004608B600B70174
:101BB000B8013508BB07360803110318013E0319A5
:101BC000E22DBC07370803110318013E0319E92D64
:101BD000BD07380803110318013E0319F02DBE0795
:101BE0002D08B5003508F00032080A168A1588233A
:101BF0000A128A15710883120313C6007008C50003
:101C00004508B5004608B600B701B8013508BB075E
:101C1000360803110318013E03190F2EBC073708BD
:101C200003110318013E0319162EBD0738080311CE
:101C30000318013E03191D2EBE070830B50003101E
:101C4000BB0DBC0DBD0DBE0DB50B1F2E2D08B50077
:101C50003508F00031080A168A1588230A128A15F9
:101C6000710883120313C6007008C5004508B5004B
:101C70004608B600B701B8013508BB07360803119E
:101C80000318013E0319452EBC073708031103183A
:101C9000013E03194C2EBD07380803110318013EFD
:101CA0000319532EBE072E08B5003508F00033087F
:101CB0000A168A1588230A128A15710883120313DB
:101CC000C6007008C5004508B5004608B600B70153
:101CD000B8013508C107360803110318013E03197E
:101CE000722EC207370803110318013E0319792E1B
:101CF000C307380803110318013E0319802EC407D7
:101D00002F08B5003508F00032080A168A15882316
:101D10000A128A15710883120313C6007008C500E1
:101D20004508B5004608B600B701B8013508C10737
:101D3000360803110318013E03199F2EC207370806
:101D400003110318013E0319A62EC3073808031117
:101D50000318013E0319AD2EC4072F08B50035083E
:101D6000F00033080A168A1588230A128A157108AA
:101D700083120313C6007008C5004508B500460865
:101D8000B600B701B80108300310B50DB60DB70D98
:101D9000B80DFF3E031DC42E3508C10736080311D8
:101DA0000318013E0319D52EC20737080311031883
:101DB000013E0319DC2EC307380803110318013E46
:101DC0000319E32EC4073B08B5003C08B6003D08E4
:101DD000B7003E08B80018300310B80CB70CB60CAA
:101DE000B50CFF3E031DEC2E3508C1073608031164
:101DF0000318013E0319FD2EC2073708031103180B
:101E0000013E0319042FC307380803110318013ECC
:101E100003190B2FC4070830B5000310BB0DBC0D10
:101E2000BD0DBE0DB50B0D2F40083F07B500B60127
:101E3000B60D3508823EC50036080318013EFF3E48
:101E4000C600412F0130B5000310C10DC20DC30DF6
:101E5000C40DB50B242FBE1F2E2F2F2F312F411451
:101E6000312F0130B5000310BB0DBC0DBD0DBE0DF3
:101E7000B50B332FFF30C5070318C60AFF30C6075E
:101E8000412FC31F442F452F222F462FBF01BE1FB6
:101E90004A2F4B2F6B2FFF303B05B500FF303C0521
:101EA000B600FF303D05B7007F303E05B80038086A
:101EB00037043604350403195E2F5F2F622FBF01EC
:101EC000BF0A6B2F411C652F662F6B2FBF01BF0A06
:101ED0006B2F6B2F6B2F3F0803196F2F702FA32FC2
:101EE0000130C107003003180130C2070030031869
:101EF0000130C307003003180130C407441C812F90
:101F0000822FA32F4108B5004208B6004308B7004E
:101F10004408B8000130B900380DB80CB70CB60C45
:101F2000B50CB90B8C2F3808C4003708C30036082D
:101F3000C2003508C1000130C5070318C60A0030C9
:101F4000C607A32FA32F4608803AFF0080307F02E8
:101F5000031DAC2FFF304502031CAF2FB02FBB2F4A
:101F60007F3083120313C4008030C3000030C200EE
:101F70000030C100F22F831203134608803AFF009D
:101F800080307F02031DC62F013045020318C92F80
:101F9000CA2FD62F003083120313C4000030C300B1
:101FA0000030C2000030C100BA01F22F83120313C7
:101FB0004508B5003508C000FF30C105FF30C20537
:101FC0007F30C3050030C405401CE72FE82FEA2FFF
:101FD000C317EA2F4008B5000310350CB6003608C9
:101FE000C400F22F3A08B5003508C4044408B00014
:101FF0004308AF004208AE004108AD00FF2F0800C3
:102004000030FC000030FB000030FA000030F90022
:1020140073087204710470040319112812286528C6
:10202400FD01FD0A23280130F8000310F00DF10D25
:10203400F20DF30DF80B17280130F8007808FD07AE
:102044002328F31F26282728152829282928013082
:10205400F8000310F90DFA0DFB0DFC0DF80B2B28FD
:1020640073087702031D402872087602031D402876
:1020740071087502031D402870087402031C43286C
:10208400442854287008F4027108031C710FF502E7
:102094007208031C720FF6027308031C730FF70215
:1020A4007914542801300310F30CF20CF10CF00CE9
:1020B400FF3E031D55280130FD02031D62286328DD
:1020C4002928652865287C08F3007B08F2007A0833
:1020D400F1007908F0006E28080077088039F800CC
:1020E400780883120313A4007708F8007807F9002E
:1020F4007908AB00F61F7F28802882282B148228B9
:102104002B0803198628872898282B0A031D8B2857
:102114008C2895280030F7000030F6000030F500D8
:102124000030F4009528F617F701A1280030F700D5
:102134000030F6000030F5000030F400A1287308E8
:102144008039F8007808A4067308F8007807F900C5
:102154007908AC00F21FAF28B028B2282C14B2289A
:102164002C080319B628B728C8282C0A031DBB2835
:10217400BC28C5280030F3000030F2000030F10024
:102184000030F000C528F217F301D0280030F30026
:102194000030F2000030F1000030F00073087204E7
:1021A40071047004031DD728D828F2280030F700E2
:1021B4000030F6000030F5000030F4008030F60402
:1021C4007F30F7042408F8007808F7047708F30050
:1021D4007608F2007508F1007408F0007D2A7D2A63
:1021E4002B08031DF628F72809290030F7000030D2
:1021F400F6000030F5000030F4007708F3007608AC
:10220400F2007508F1007408F0007D2A7D2A2C087C
:10221400F800F901F809F909F80A0319F90A2B0871
:102224007807FA0079080318790AFB007A087F3ED8
:10223400A5007B080318013E003EA6007708A30012
:102244007608A2007508A1007408A0000030F70009
:102254000030F6000030F5000030F4000030AA0031
:102264000030A9000030A8000030A700AC018E297E
:102274002C0803193E293F2961290130F800031075
:10228400A00DA10DA20DA30DF80B41290130F800FA
:102294000310F40DF50DF60DF70DF80B4A29AA1FDE
:1022A400542955295729741457290130F80003106B
:1022B400A70DA80DA90DAA0DF80B592961297308BA
:1022C4002302031D6F2972082202031D6F2971085E
:1022D4002102031D6F2970082002031C722973292F
:1022E40089292A177008A0027108031C710F7B2921
:1022F4007C29A1027208031C720F81298229A2027F
:102304007308031C730F87298829A30289290130C4
:10231400F8007808AC078E291A302C02031C932984
:1023240094293A2995292308220421042004031915
:102334009C299D29BF292714BF29BF290130F800F2
:102344000310F40DF50DF60DF70DF80BA229AA1FD5
:10235400AC29AD29AF297414AF290130F80003105A
:10236400A70DA80DA90DAA0DF80BB129FF30A507DB
:102374000318A60AFF30A607BF29F61FC229C329DE
:10238400A029C429AC01AA1FC829C929E929FF30F9
:102394002705F800FF302805F900FF302905FA0069
:1023A4007F302A05FB007B087A047904780403193A
:1023B400DC29DD29E029AC01AC0AE929741CE329F4
:1023C400E429E929AC01AC0AE929E929E9292C081D
:1023D4000319ED29EE29212A0130F40700300318EE
:1023E4000130F507003003180130F60700300318F8
:1023F4000130F707771CFF29002A212A7408F80006
:102404007508F9007608FA007708FB000130FC0033
:102414007B0DFB0CFA0CF90CF80CFC0B0A2A7B085C
:10242400F7007A08F6007908F5007808F40001301E
:10243400A5070318A60A0030A607212A212A260880
:10244400803AFF0080307F02031D2A2AFF302502D4
:10245400031C2D2A2E2A3D2AFF3083120313A500C4
:102464000030A6000030F7000030F6000030F50020
:102474000030F4003D2A831203132608803AFF003B
:1024840080307F02031D482A0130250203184B2A9D
:102494004C2A592A83120313A501A6010030F70020
:1024A4000030F6000030F5000030F400A40183127F
:1024B40003132508F8007808AB002B1C622A632A52
:1024C400652AF617692A7F30F8007808F6052B0884
:1024D400F8000310780CF9007908F7002408F800D4
:1024E4007808F7047708F3007608F2007508F1001D
:1024F4007408F0007D2A080083120313DA006E309A
:102504005A02031C862A872A982B3F30B0000030D9
:10251400AF000030AE000030AD006430F600003093
:10252400F7005A08CB00CC014B08F8004C08F9001E
:102534000A168A15F3230A168A11760883120313DE
:10254400CD0001300310CD0DFF3E031DA42A03105E
:102554004D0D483E353E84000A168A1500200A16A1
:102564008A11CE000A168A1500200A168A11CF0095
:102574000A168A1500200A168A11D0000A168A152E
:1025840000200A168A11D1005108B4005008B30083
:102594004F08B2004E08B1000A128A158B240A169D
:1025A4008A11831203133008D9002F08D8002E088B
:1025B400D7002D08D6000A30F6000030F7005A087C
:1025C400CB00CC014B08F2004C08F3006430F0005F
:1025D4000030F1000A168A15B2230A168A1171080E
:1025E400F9007008F8000A168A15F3230A168A11EE
:1025F400760883120313CD0001300310CD0DFF3E86
:10260400031DFF2A03104D0D243E353E84000A1697
:102614008A1500200A168A11CE000A168A1500208F
:102624000A168A11CF000A168A1500200A168A1182
:10263400D0000A168A1500200A168A11D100510802
:10264400B0005008AF004F08AE004E08AD00590866
:10265400B4005808B3005708B2005608B1000A1273
:102664008A158B240A168A11831203133008D500A5
:102674002F08D4002E08D3002D08D2000A30F00011
:102684000030F1005A08CB00CC014B08F2004C0892
:10269400F3000A168A15B2230A168A1170088312E7
:1026A4000313CD0001300310CD0DFF3E031D552B48
:1026B40003104D0D353E84000A168A1500200A16B3
:1026C4008A11CE000A168A1500200A168A11CF0034
:1026D4000A168A1500200A168A11D0000A168A15CD
:1026E40000200A168A11D1005108B0005008AF002A
:1026F4004F08AE004E08AD005508B4005408B300AE
:102704005308B2005208B1000A128A158B240A1623
:102714008A11831203133008CA002F08C9002E0837
:10272400C8002D08C700902C902C4C2C0B305A025A
:10273400031C9D2B9E2B4C2C3F30B0000030AF006F
:102744000030AE000030AD000A30F6000030F70073
:102754005A08CB00CC014B08F8004C08F9000A16C3
:102764008A15F3230A168A11760883120313CD00FF
:1027740001300310CD0DFF3E031DBB2B03104D0D87
:10278400243E353E84000A168A1500200A168A1152
:10279400CE000A168A1500200A168A11CF000A16DE
:1027A4008A1500200A168A11D0000A168A150020FC
:1027B4000A168A11D1005108B4005008B3004F081A
:1027C400B2004E08B1000A128A158B240A168A1127
:1027D400831203133008D9002F08D8002E08D7001D
:1027E4002D08D6000A30F0000030F1005A08CB0062
:1027F400CC014B08F2004C08F3000A168A15B223E8
:102804000A168A11700883120313CD0001300310D5
:10281400CD0DFF3E031D092C03104D0D353E8400E4
:102824000A168A1500200A168A11CE000A168A157D
:1028340000200A168A11CF000A168A1500200A16EB
:102844008A11D0000A168A1500200A168A11D100AE
:102854005108B0005008AF004F08AE004E08AD005C
:102864005908B4005808B3005708B2005608B1001C
:102874000A128A158B240A168A118312031330084C
:10288400CA002F08C9002E08C8002D08C700902CC4
:10289400902C4C2C3F30B0000030AF000030AE0024
:1028A4000030AD005A08CB0001300310CB0DFF3EC1
:1028B400031D572C03104B0D353E84000A168A1550
:1028C40000200A168A11CC000A168A1500200A165E
:1028D4008A11CD000A168A1500200A168A11CE0024
:1028E4000A168A1500200A168A11CF004F08B40070
:1028F4004E08B3004D08B2004C08B1000A128A1504
:102904008B240A168A11831203133008CA002F0875
:10291400C9002E08C8002D08C700902C0800831297
:102924000313D900D91F972C982C4D2ED909D90AF5
:102934005908803A123E031CA02CA12C8D2D0A307C
:10294400F7000030F8005908F200F301F21BF3031A
:102954006430F0000030F1000A168A1546250A1684
:102964008A117108FA007008F9000A168A15A92557
:102974000A168A11770883120313CB00013003105F
:10298400CB0DFF3E031DC12C03104B0D243E353EE1
:1029940084000A168A1500200A168A11CC000A1629
:1029A4008A1500200A168A11CD000A168A150020FD
:1029B4000A168A11CE000A168A1500200A168A11F0
:1029C400CF004F08B0004E08AF004D08AE004C08D1
:1029D400AD006430F7000030F8005908F900FA013E
:1029E400F91BFA030A168A15A9250A168A1177080B
:1029F40083120313D00001300310D00DFF3E031DDA
:102A0400FE2C0310500D483E353E84000A168A15EC
:102A140000200A168A11D1000A168A1500200A1607
:102A24008A11D2000A168A1500200A168A11D300C8
:102A34000A168A1500200A168A11D4005408B40014
:102A44005308B3005208B2005108B1000A128A15A3
:102A54008B240A168A11831203133008D8002F0816
:102A6400D7002E08D6002D08D5000A30F00000301B
:102A7400F1005908F200F301F21BF3030A168A1558
:102A840046250A168A11700883120313CB000130FD
:102A94000310CB0DFF3E031D4A2D03104B0D353E95
:102AA40084000A168A1500200A168A11CC000A1618
:102AB4008A1500200A168A11CD000A168A150020EC
:102AC4000A168A11CE000A168A1500200A168A11DF
:102AD400CF004F08B0004E08AF004D08AE004C08C0
:102AE400AD005808B4005708B3005608B2005508A2
:102AF400B1000A128A158B240A168A118312031351
:102B04003008CA002F08C9002E08C8002D08C700C5
:102B1400FF2FFF2F1F2E5908803A753E031C932D5B
:102B2400942D1F2E0A30F0000030F1005908F200F5
:102B3400F301F21BF3030A168A1546250A168A11B5
:102B4400700883120313CB0001300310CB0DFF3E3A
:102B5400031DA72D03104B0D353E84000A168A155C
:102B640000200A168A11CC000A168A1500200A16BB
:102B74008A11CD000A168A1500200A168A11CE0081
:102B84000A168A1500200A168A11CF004F08B000D1
:102B94004E08AF004D08AE004C08AD000A30F700F7
:102BA4000030F8005908F900FA01F91BFA030A1673
:102BB4008A15A9250A168A11770883120313D000EF
:102BC40001300310D00DFF3E031DE32D0310500D03
:102BD400243E353E84000A168A1500200A168A11FE
:102BE400D1000A168A1500200A168A11D2000A1684
:102BF4008A1500200A168A11D3000A168A150020A5
:102C04000A168A11D4005408B4005308B3005208B9
:102C1400B2005108B1000A128A158B240A168A11CF
:102C2400831203133008CA002F08C9002E08C800F5
:102C34002D08C700FF2FFF2F1F2E5908CB0001308E
:102C44000310CB0DFF3E031D222E03104B0D353E0A
:102C540084000A168A1500200A168A11CC000A1666
:102C64008A1500200A168A11CD000A168A1500203A
:102C74000A168A11CE000A168A1500200A168A112D
:102C8400CF004F08CA004E08C9004D08C8004C08C0
:102C9400C700FF2FFF2F5908803A123E031C532E02
:102CA400542E402F0A30F7000030F8005908F20083
:102CB400F301F21BF3036430F0000030F1000A1654
:102CC4008A1546250A168A117108FA007008F90057
:102CD4000A168A15A9250A168A117708831203137E
:102CE400CB0001300310CB0DFF3E031D742E0310E7
:102CF4004B0D243E013E84000A168A1500200A1654
:102D04008A11CC000A168A1500200A168A11CD00F1
:102D14000A168A1500200A168A11CE000A168A1588
:102D240000200A168A11CF004F08B0004E08AF00E9
:102D34004D08AE004C08AD006430F7000030F800D8
:102D44005908F900FA01F91BFA030A168A15A9258C
:102D54000A168A11770883120313D0000130031076
:102D6400D00DFF3E031DB12E0310500D483E013E11
:102D740084000A168A1500200A168A11D1000A1640
:102D84008A1500200A168A11D2000A168A15002014
:102D94000A168A11D3000A168A1500200A168A1107
:102DA400D4005408B4005308B3005208B2005108C8
:102DB400B1000A128A158B240A168A11831203138E
:102DC4003008D8002F08D7002E08D6002D08D500CB
:102DD4000A30F0000030F1005908F200F301F21B50
:102DE400F3030A168A1546250A168A1170088312F7
:102DF4000313CB0001300310CB0DFF3E031DFD2E4A
:102E040003104B0D013E84000A168A1500200A1691
:102E14008A11CC000A168A1500200A168A11CD00E0
:102E24000A168A1500200A168A11CE000A168A1577
:102E340000200A168A11CF004F08B0004E08AF00D8
:102E44004D08AE004C08AD005808B4005708B30054
:102E54005608B2005508B1000A128A158B240A16C6
:102E64008A11831203133008CA002F08C9002E08E0
:102E7400C8002D08C700FF2FFF2FD22F5908803A12
:102E8400753E031C462F472FD22F0A30F000003026
:102E9400F1005908F200F301F21BF3030A168A1534
:102EA40046250A168A11700883120313CB000130D9
:102EB4000310CB0DFF3E031D5A2F03104B0D013E93
:102EC40084000A168A1500200A168A11CC000A16F4
:102ED4008A1500200A168A11CD000A168A150020C8
:102EE4000A168A11CE000A168A1500200A168A11BB
:102EF400CF004F08B0004E08AF004D08AE004C089C
:102F0400AD000A30F7000030F8005908F900FA0162
:102F1400F91BFA030A168A15A9250A168A117708D5
:102F240083120313D00001300310D00DFF3E031DA4
:102F3400962F0310500D243E013E84000A168A1574
:102F440000200A168A11D1000A168A1500200A16D2
:102F54008A11D2000A168A1500200A168A11D30093
:102F64000A168A1500200A168A11D4005408B400DF
:102F74005308B3005208B2005108B1000A128A156E
:102F84008B240A168A11831203133008CA002F08EF
:102F9400C9002E08C8002D08C700FF2FFF2FD22F0D
:102FA4005908CB0001300310CB0DFF3E031DD52F74
:102FB40003104B0D013E84000A168A1500200A16E0
:102FC4008A11CC000A168A1500200A168A11CD002F
:102FD4000A168A1500200A168A11CE000A168A15C6
:102FE40000200A168A11CF004F08CA004E08C900F3
:102FF4004D08C8004C08C700FF2F080018308A008D
:103004000408840A820700340034003480343F34D6
:10301400003400342034413400340034C8344234A1
:10302400003400347A344434003440341C3446349C
:1030340000345034C33447340034243474344934B1
:103044008034963418344B342034BC34BE344C347D
:1030540028346B346E344E34F9340234153450341D
:10306400EC347834AD346034CA34F23449347134D5
:103074000034003480343F34CD34CC34CC343D344B
:103084000A34D73423343C346F34123483343A341E
:103094001734B734D1343834AC34C53427343734E6
:1030A400BD343734863435349534BF34D634333470
:1030B4007734CC342B3432345F3470348934303444
:1030C400FF34E634DB342E340834E5343C341E3427
:1030D40060344234A2340D340134003400340034FA
:1030E4000A340034003400346434003400340034CE
:1030F400E83403340034003410342734003400340A
:10310400A034863401340034403442340F34003463
:1031140080349634983400340034E134F534053482
:103124000034CA349A343B343A3420342534663477
:0C3134002034563420340A340D340034AA
:1036600064008001840A0406031900340406312B27
:10367000730872047104700403193F2B402B432B11
:103680008030F306432B442B0800243083160313A9
:103690009800903083120313980067308316031349
:1036A00099000800F0007008831203139900582B4A
:1036B00083160313981C5D2B5E2B582B5F2B080081
:1036C000F401F501632B701C662B672B6D2B7208C0
:1036D000F4070318F50A7308F50701300310F20D1B
:1036E000F30DFF3E031D6E2B01300310F10CF00CA7
:1036F000FF3E031D752B70087104031D802B812B69
:10370000632B822B7508F1007408F000872B0800EA
:10371000F800F401F5017008F200F3017208F600F8
:103720007308F700932B781C962B972B9D2B76080C
:10373000F4070318F50A7708F50701300310F60DB2
:10374000F70DFF3E031D9E2B0310F80C7808031D98
:10375000AA2BAB2B932BAC2B7508F1007408F0004F
:10376000B12B0800700871040319B72BB82BED2B8F
:10377000F501F50AC72B01300310F00DF10DFF3EE6
:10378000031DBC2B0130F4007408F507C72BF11F93
:10379000CA2BCB2BBB2BCD2BCD2B71087302031D5A
:1037A000D32B70087202031CD62BD72BDE2B70088C
:1037B000F2027108031CF303F302DE2B0130031045
:1037C000F10CF00CFF3E031DDF2B0130F502031D51
:1037D000EA2BEB2BCD2BED2BED2B7308F1007208B0
:1037E000F000F22B0800FB01FC01760877040319B6
:1037F000FA2BFB2B382CFD01FD0A0A2C013003109B
:10380000F60DF70DFF3E031DFF2B0130FA007A087D
:10381000FD070A2CF71F0D2C0E2CFE2B102C102C44
:1038200001300310FB0DFC0DFF3E031D112C77082A
:103830007902031D1D2C76087802031C202C212CF4
:10384000292C7608F8027708031CF903F9027B1487
:10385000292C01300310F70CF60CFF3E031D2A2C17
:103860000130FD02031D352C362C102C382C382C41
:103870007C08F7007B08F6003D2C0800003070053E
:10388000F80000307105F90080307205FA007F30D1
:103890007305FB007B087A0479047804031D512C1E
:1038A000522C5A2C0030F3000030F2000030F100AE
:1038B0000030F00000307405F80000307505F900A4
:1038C00080307605FA007F307705FB007B087A04AC
:1038D00079047804031D6D2C6E2C762C0030F700D3
:1038E0000030F6000030F5000030F4007708730671
:1038F000031D842C76087206031D842C750871063E
:10390000031D842C740870060319872C882C8A2CBC
:1039100003108D2C03148D2C8D2C08007308720459
:10392000710470040319952C962CDF2CF901F90A07
:10393000A72C0130F8000310F00DF10DF20DF30D7E
:10394000F80B9B2C0130F8007808F907A72CF31F1F
:10395000AA2CAB2C992CAD2CAD2C73087702031D2F
:10396000BB2C72087602031DBB2C71087502031D67
:10397000BB2C70087402031CBE2CBF2CCE2C70080C
:10398000F4027108031C710FF5027208031C720F18
:10399000F6027308031C730FF702CE2C01300310DC
:1039A000F30CF20CF10CF00CFF3E031DCF2C013098
:1039B000F902031DDC2CDD2CAD2CDF2CDF2C77086D
:1039C000F3007608F2007508F1007408F000E82CA6
:1039D000080083160313071387170A168A15452351
:1039E0000A168A150A128A1500200A168A15F82C5A
:1039F0000A128A1103200A168A150A168A151C262D
:103A00000A168A15831203134A0883160313E90062
:103A100083120313490883160313E8008312031368
:103A2000480883160313E70083120313470883161D
:103A30000313E6009130CF004F08AC006908B000D6
:103A40006808AF006708AE006608AD00D2300A1201
:103A50008A11F4210A168A15D2300A128A11072017
:103A60000A168A15073083160313D1001730D000C9
:103A70006930CF00CF0B3A2DD00B3A2DD10B3A2D18
:103A8000412DF82CF82C0A128A110028F601F31F98
:103A90004A2D4B2D532DF209F309F20A0319F30AAB
:103AA000F601F60A532DF11F562D572D5D2DF00905
:103AB000F109F00A0319F10A5D2D70087104031968
:103AC000622D632D982DF501F50A722D013003103A
:103AD000F00DF10DFF3E031D672D0130F400740859
:103AE000F507722DF11F752D762D662D782D782D09
:103AF00071087302031D7E2D70087202031C812D54
:103B0000822D892D7008F2027108031CF303F30261
:103B1000892D01300310F10CF00CFF3E031D8A2D9E
:103B20000130F502031D952D962D782D982D982D99
:103B3000760803199C2D9D2DA32DF209F309F20A95
:103B40000319F30AA32D7308F1007208F000A82DE1
:103B5000080083120313A101F81FAF2DB02DB82D5B
:103B6000F709F809F70A0319F80AA101A10AB82D03
:103B7000FA1FBB2DBC2DC62DF909FA09F90A031944
:103B8000FA0A0130FB007B08A106C62DA201A301A1
:103B9000770878040319CD2DCE2D0B2EA001A00A95
:103BA000DD2D01300310F70DF80DFF3E031DD22D62
:103BB0000130FB007B08A007DD2DF81FE02DE12D73
:103BC000D12DE32DE32D01300310A20DA30DFF3EF7
:103BD000031DE42D78087A02031DF02D7708790281
:103BE000031CF32DF42DFC2D7708F9027808031C33
:103BF000FA03FA022214FC2D01300310F80CF70C22
:103C0000FF3E031DFD2D0130A002031D082E092ECD
:103C1000E32D0B2E0B2E210803190F2E102E162E1E
:103C2000A209A309A20A0319A30A162E2308F80061
:103C30002208F7001B2E08001D2E831203131F19E4
:103C4000222E232E1D2E242E831603131E088312CC
:103C500003131E07F000F101F10DF201F11BF20355
:103C60007208F30001300A168A153E270A168A15D3
:103C7000730883160313E9007208E8007108E7006F
:103C80007008E600403083120313B000A030AF008C
:103C90000030AE000030AD004430F3008030F20060
:103CA0000030F1000030F000831603136908F700BC
:103CB0006808F6006708F5006608F4000A168A111D
:103CC0006F200A168A15730883120313B400720852
:103CD000B3007108B2007008B1000A128A158B2473
:103CE0000A168A1583120313300883160313E9009A
:103CF000831203132F0883160313E80083120313A0
:103D00002E0883160313E700831203132D0883166E
:103D10000313E600690883120313CA008316031312
:103D2000680883120313C9008316031367088312FC
:103D30000313C80083160313660883120313C70016
:103D4000A12E0800831203135A08DE005B08DF006F
:103D50005C08E0005D08E1000310600D610DE20009
:103D60006208E4006408031DB62EB72EC12E003091
:103D7000DD000030DC000030DB000030DA003D2FD9
:103D80003D2F5A08DE005B08DF005C08E0005D089C
:103D9000E1001F300310E10CE00CDF0CDE0CFF3EF5
:103DA000031DCA2E5E08E2006208E300DC17FF3044
:103DB000DA05FF30DB05FF30DC050030DD0596302D
:103DC000E402E41FE42EE52E0A2F6408803A973EB1
:103DD0000318EB2EEC2EF72E0030DD000030DC0057
:103DE0000030DB000030DA003D2F3D2FF72E013090
:103DF0000310DD0CDC0CDB0CDA0CFF3E031DF82E8F
:103E00000130DE005E08E407031D072F082FF72EA0
:103E10002D2F2D2F20306402031C0F2F102F262F43
:103E20000030DD000030DC000030DB000030DA0064
:103E30003D2F3D2F262F0130DE000310DA0DDB0D64
:103E4000DC0DDD0DDE0B1D2F0130E4026408031DC7
:103E50002A2F2B2F1B2F2D2F2D2F63080319312FC6
:103E6000322F3D2FDA09DB09DC09DD09DA0A0319F3
:103E7000DB0A0319DC0A0319DD0A0800F8007808D8
:103E80000319432F442F582FF31F472F482F582F24
:103E90007009FA007109FB007209FC007309FD004A
:103EA000FA0A0319FB0A0319FC0A0319FD0A602F19
:103EB0007308FD007208FC007108FB007008FA002E
:103EC0007308720471047004031D672F682F722F2A
:103ED0000030F3000030F2000030F1000030F0005C
:103EE000FF2FFF2F9630F4007408F900852F013062
:103EF000F4007408F90701300310FD0CFC0CFB0CF6
:103F0000FA0CFF3E031D7C2F852FFE307D05031D1F
:103F10008A2F8B2F772FA82FA82F0130F400740839
:103F2000F9070130FA07003003180130FB070030B1
:103F300003180130FC07003003180130FD07013081
:103F40000310FD0CFC0CFB0CFA0CFF3E031DA02F14
:103F5000FF307D05031DAD2FAE2F8D2FBC2FBC2F45
:103F60000130F9020130F4000310FA0DFB0DFC0DD5
:103F7000FD0DF40BB42FBC2FFC1BBF2FC02FC72F80
:103F8000023079020318C52FC62FB02FC72F79181A
:103F9000CA2FCB2FD32FFF30FA05FF30FB057F3020
:103FA000FC05FF30FD050310F90C7908F400F5015C
:103FB000F601F70118300310F40DF50DF60DF70DAD
:103FC000FF3E031DDB2F7408FA047508FB04760816
:103FD000FC047708FD0478080319EF2FF02FF62F63
:103FE000F31FF32FF42FF62FFD17F62F7D08F300A4
:103FF0007C08F2007B08F1007A08F000FF2F08002F
:00000001FF
