S021000054696D6572315F7265675F636F756E745F696E7472727570742E73726563C5
S11300000C9434000C943E000C943E000C943E007E
S11300100C943E000C943E000C943E000C943E0064
S11300200C943E000C943E000C943E000C9455003D
S11300300C943E000C943E000C943E000C943E0044
S11300400C943E000C943E000C943E000C943E0034
S11300500C943E000C943E000C943E000C943E0024
S11300600C943E000C943E0011241FBECFEFD8E048
S1130070DEBFCDBF0E9440000C9464000C940000CD
S11300808DE0809381008FE090E0909389008093CD
S1130090880082E080936F008FEF84B915B81092C6
S11300A08500109284007894FFCF1F920F920FB6B0
S11300B00F9211248F9385B1809585B98F910F90FC
S10F00C00FBE0F901F901895F894FFCF0E
S9030000FC
