:100000000C9434000C9449000C9449000C94490061
:100010000C9449000C9449000C9449000C9449003C
:100020000C9449000C9449000C9449000C9449002C
:100030000C9449000C9449000C9449000C9449001C
:100040000C9449000C9449000C9449000C9449000C
:100050000C9449000C9449000C9449000C944900FC
:100060000C9449000C94490011241FBECFEFD8E036
:10007000DEBFCDBF11E0A0E0B1E0E2E9F1E002C0F7
:1000800005900D92A231B107D9F70E948C000C9413
:10009000C7000C94000083E390E09093C500809328
:1000A000C400E1ECF0E080818860808386E080938A
:1000B000C20008958093C600E0ECF0E0808185FFE7
:1000C000FDCF089584B1886284B981E58CBD1DBCE3
:1000D00008958EBD0DB407FEFDCF0895CF93DF9335
:1000E000EC018881882379F021960E9469002FEF26
:1000F00080E792E0215080409040E1F700C000008E
:1001000089918111F2CFDF91CF910895249A87EFE1
:1001100085B981E48CBD0895CF93DF93CDB7DEB769
:1001200061970FB6F894DEBF0FBECDBF509889B16E
:10013000813011F581E1E0E0F1E0DE0111960190FE
:100140000D928A95E1F70E9462002FEF80E792E01E
:10015000215080409040E1F700C00000CE010196A0
:100160000E946E002FEF80E792E021508040904087
:10017000E1F700C00000F2CF0E9486000E944B0011
:100180000DB407FEFDCF8EB50E945A00F9CFF8944A
:02019000FFCF9F
:100192006142434445464748494A4B4C4D4E4F50B5
:0201A20000005B
:00000001FF
