:020000040000FA
:060000000A128A11FC2F18
:1004DE00F800F401F5017008F200F3017208F6005D
:1004EE007308F7007A2A781C7D2A7E2A842A7608D9
:1004FE00F4070318F50A7708F50701300310F60D17
:10050E00F70DFF3E031D852A0310F80C7808031D16
:10051E00912A922A7A2A932A7508F1007408F0001B
:10052E00982A08008316031386018312031386018B
:10053E0083160313811201128111A52A0114A72A11
:10054E00FF308312031386000130C5000030C60051
:10055E000A128A11C5220A128A1183120313860106
:10056E000130C5000030C6000A128A11C5220A12D7
:10057E008A11A72AA72A0A128A11002883120313A6
:10058E004508F0004608F1000030F11BFF30F20084
:10059E00F30001300A128A11C5230A128A11730858
:1005AE0083120313A7007208A6007108A500700835
:1005BE00A4004230A3007430A2002330A100D73033
:1005CE00A0000A128A1187240A128A1183120313B9
:1005DE002308BD002208BC002108BB002008BA0079
:1005EE000A128A1129230A128A11831203133B0855
:1005FE00C9003A08C8000B110130CA000030CB0008
:10060E00192B8312031381010C2B0B1D0F2B102B97
:10061E000C2B0B11013083120313CA070318CB0ADC
:10062E000030CB074B08803AC7004908803A470292
:10063E00031D232B48084A02031C262B272B082BAD
:10064E00282B0800831203133A08BE003B08BF0094
:10065E003C08C0003D08C1000310400D410DC20012
:10066E004208C4004408031D3D2B3E2B482B00308E
:10067E00BD000030BC000030BB000030BA00C42BFF
:10068E00C42B3A08BE003B08BF003C08C0003D0822
:10069E00C1001F300310C10CC00CBF0CBE0CFF3EBE
:1006AE00031D512B3E08C2004208C300BC17FF3089
:1006BE00BA05FF30BB05FF30BC050030BD059630D6
:1006CE00C402C41F6B2B6C2B912B4408803A973EAF
:1006DE000318722B732B7E2B0030BD000030BC0034
:1006EE000030BB000030BA00C42BC42B7E2B01306F
:1006FE000310BD0CBC0CBB0CBA0CFF3E031D7F2BB4
:10070E000130BE003E08C407031D8E2B8F2B7E2B9F
:10071E00B42BB42B20304402031C962B972BAD2BFD
:10072E000030BD000030BC000030BB000030BA000D
:10073E00C42BC42BAD2B0130BE000310BA0DBB0D64
:10074E00BC0DBD0DBE0BA42B0130C4024408031D0D
:10075E00B12BB22BA22BB42BB42B43080319B82BFD
:10076E00B92BC42BBA09BB09BC09BD09BA0A0319B6
:10077E00BB0A0319BC0A0319BD0A0800F800780861
:10078E000319CA2BCB2BDF2BF31FCE2BCF2BDF2B3B
:10079E007009FA007109FB007209FC007309FD0073
:1007AE00FA0A0319FB0A0319FC0A0319FD0AE72BBF
:1007BE007308FD007208FC007108FB007008FA0057
:1007CE007308720471047004031DEE2BEF2BF92BCA
:1007DE000030F3000030F2000030F1000030F00085
:1007EE00862C862C9630F4007408F9000C2C0130FF
:1007FE00F4007408F90701300310FD0CFC0CFB0C1F
:10080E00FA0CFF3E031D032C0C2CFE307D05031D40
:10081E00112C122CFE2B2F2C2F2C0130F4007408CF
:10082E00F9070130FA07003003180130FB070030DA
:10083E0003180130FC07003003180130FD070130AA
:10084E000310FD0CFC0CFB0CFA0CFF3E031D272CB9
:10085E00FF307D05031D342C352C142C432C432CDA
:10086E000130F9020130F4000310FA0DFB0DFC0DFE
:10087E00FD0DF40B3B2C432CFC1B462C472C4E2C15
:10088E000230790203184C2C4D2C372C4E2C791833
:10089E00512C522C5A2CFF30FA05FF30FB057F30BD
:1008AE00FC05FF30FD050310F90C7908F400F50185
:1008BE00F601F70118300310F40DF50DF60DF70DD6
:1008CE00FF3E031D622C7408FA047508FB047608BB
:1008DE00FC047708FD0478080319762C772C7D2C00
:1008EE00F31F7A2C7B2C7D2CFD177D2C7D08F300BD
:1008FE007C08F2007B08F1007A08F000862C0800D4
:10090E008312031323088039A8002808AD0023089A
:10091E00A8002807A9002908B300A21F972C982C1D
:10092E009A2C33149A2C330803199E2C9F2CAF2C1F
:10093E00330A031DA32CA42CAD2C0030A3000030D1
:10094E00A2000030A1000030A000AD2CA217B82CE0
:10095E000030A3000030A2000030A1000030A00043
:10096E00B82C27088039A8002808AD062708A8004B
:10097E002807A9002908B200A61FC62CC72CC92C0F
:10098E003214C92C32080319CD2CCE2CDE2C320A8F
:10099E00031DD22CD32CDC2C0030A7000030A60077
:1009AE000030A5000030A400DC2CA617E72C003088
:1009BE00A7000030A6000030A5000030A400E72CF0
:1009CE0032080319EB2CEC2CF22C3308031DF02CFF
:1009DE00F12CFC2CF22C0030A3000030A2000030D1
:1009EE00A1000030A000FB2FFB2F2008A800280834
:1009FE00F00026080A128A116F220A128A11710853
:100A0E0083120313B9007008B8003808A800A901B2
:100A1E00AA01AB012B08B1002A08B0002908AF00CB
:100A2E002808AE003908A800A901AA01AB012B08BD
:100A3E00B7002A08B6002908B5002808B400210816
:100A4E00A8002808F00025080A128A116F220A123F
:100A5E008A11710883120313B9007008B8003808A0
:100A6E00A800A901AA01AB012808AE0729080311A5
:100A7E000318013E0319442DAF072A08031103186A
:100A8E00013E03194B2DB0072B0803110318013E2D
:100A9E000319522DB1073908A800A901AA01AB010B
:100AAE002808B407290803110318013E0319602D05
:100ABE00B5072A0803110318013E0319672DB6075F
:100ACE002B0803110318013E03196E2DB7072208D8
:100ADE00A8002808F00024080A128A116F220A12B0
:100AEE008A11710883120313B9007008B800380810
:100AFE00A800A901AA01AB012808AE072908031115
:100B0E000318013E03198C2DAF072A080311031891
:100B1E00013E0319932DB0072B0803110318013E54
:100B2E0003199A2DB1073908A800A901AA01AB0132
:100B3E002808B407290803110318013E0319A82D2C
:100B4E00B5072A0803110318013E0319AF2DB60786
:100B5E002B0803110318013E0319B62DB7070830F1
:100B6E00A8000310AE0DAF0DB00DB10DA80BB82D32
:100B7E002108A8002808F00024080A128A116F2202
:100B8E000A128A11710883120313B9007008B80093
:100B9E003808A8003908A900AA01AB012808AE0739
:100BAE00290803110318013E0319DE2DAF072A0889
:100BBE0003110318013E0319E52DB0072B0803118D
:100BCE000318013E0319EC2DB1072008A8002808D0
:100BDE00F00025080A128A116F220A128A11710872
:100BEE0083120313B9007008B8003808A80039083A
:100BFE00A900AA01AB012808AE07290803110318A2
:100C0E00013E03190B2EAF072A0803110318013EEC
:100C1E000319122EB0072B0803110318013E0319F6
:100C2E00192EB1070830A8000310AE0DAF0DB00D90
:100C3E00B10DA80B1B2E2008A8002808F0002408D0
:100C4E000A128A116F220A128A1171088312031373
:100C5E00B9007008B8003808A8003908A900AA0120
:100C6E00AB012808AE07290803110318013E03192A
:100C7E00412EAF072A0803110318013E0319482E0F
:100C8E00B0072B0803110318013E03194F2EB107AD
:100C9E002108A8002808F00026080A128A116F22DF
:100CAE000A128A11710883120313B9007008B80072
:100CBE003808A8003908A900AA01AB012808B40712
:100CCE00290803110318013E03196E2EB5072A08D1
:100CDE0003110318013E0319752EB6072B080311D5
:100CEE000318013E03197C2EB7072208A800280816
:100CFE00F00025080A128A116F220A128A11710851
:100D0E0083120313B9007008B8003808A800390818
:100D1E00A900AA01AB012808B4072908031103187A
:100D2E00013E03199B2EB5072A0803110318013E35
:100D3E000319A22EB6072B0803110318013E03193F
:100D4E00A92EB7072208A8002808F00026080A12C4
:100D5E008A116F220A128A11710883120313B900C5
:100D6E007008B8003808A8003908A900AA01AB011C
:100D7E0008300310A80DA90DAA0DAB0DFF3E031DE3
:100D8E00C02E2808B407290803110318013E0319C1
:100D9E00D12EB5072A0803110318013E0319D82EC8
:100DAE00B6072B0803110318013E0319DF2EB707F0
:100DBE002E08A8002F08A9003008AA003108AB00A1
:100DCE0018300310AB0CAA0CA90CA80CFF3E031D87
:100DDE00E82E2808B407290803110318013E031949
:100DEE00F92EB5072A0803110318013E0319002F27
:100DFE00B6072B0803110318013E0319072FB70777
:100E0E000830A8000310AE0DAF0DB00DB10DA80B3C
:100E1E00092F33083207A800A901A90D2808823E20
:100E2E00B80029080318013EFF3EB9003D2F0130DE
:100E3E00A8000310B40DB50DB60DB70DA80B202FDD
:100E4E00B11F2A2F2B2F2D2F34142D2F0130A80038
:100E5E000310AE0DAF0DB00DB10DA80B2F2FFF303F
:100E6E00B8070318B90AFF30B9073D2FB61F402F38
:100E7E00412F1E2F422FB201B11F462F472F672F32
:100E8E00FF302E05A800FF302F05A900FF303005DA
:100E9E00AA007F303105AB002B082A042904280450
:100EAE0003195A2F5B2F5E2FB201B20A672F341C23
:100EBE00612F622F672FB201B20A672F672F672F3C
:100ECE00320803196B2F6C2F9F2F0130B40700309F
:100EDE0003180130B507003003180130B607003093
:100EEE0003180130B707371C7D2F7E2F9F2F340834
:100EFE00A8003508A9003608AA003708AB00013053
:100F0E00AC002B0DAB0CAA0CA90CA80CAC0B882FAB
:100F1E002B08B7002A08B6002908B5002808B40027
:100F2E000130B8070318B90A0030B9079F2F9F2F59
:100F3E003908803AFF0080307F02031DA82FFF3052
:100F4E003802031CAB2FAC2FB72F7F308312031345
:100F5E00B7008030B6000030B5000030B400EE2F80
:100F6E00831203133908803AFF0080307F02031D7D
:100F7E00C22F013038020318C52FC62FD22F0030D2
:100F8E0083120313B7000030B6000030B5000030F6
:100F9E00B400AD01EE2F831203133808A800280801
:100FAE00B300FF30B405FF30B5057F30B605003015
:100FBE00B705331CE32FE42FE62FB617E62F3308C1
:100FCE00A8000310280CA9002908B700EE2F2D0841
:100FDE00A8002808B7043708A3003608A200350871
:100FEE00A1003408A000FB2F080083010A128A1109
:020FFE00992A2E
:02400E00393F38
:00000001FF
